:020000040800F2
:1000000090100020D5000008A12F0008C52C000882
:1000100000000000000000000000000000000000E0
:10002000000000000000000000000000FF000008C9
:10003000000000000000000001010008713300080A
:100040000501000805010008050100080501000878
:100050000501000805010008050100080501000868
:1000600005010008C90B000805010008050100088A
:100070000501000805010008050100080501000848
:100080000501000800000000000000000501000854
:100090000000000005010008050100080501000836
:1000A0000000000005010008050100080501000826
:1000B000050100080000000005010008B544000823
:1000C0000348854600F09AFB00480047594E000857
:1000D000901000200C4880F308880C480168090E35
:1000E0000B4A914205D10B480B4901600B480C4962
:1000F00001600C4880470C480047FEE7FEE7FEE73A
:10010000FEE7FEE7FEE7000090100020040000007C
:100110001F00000018100240010000000000014014
:100120000000000021340008C100000830B50B4673
:10013000014600202022012409E00D46D5409D42C1
:1001400005D31D469540491B254695404019154647
:10015000521E002DF1DC30BD10B5202A04DB08460C
:10016000203AD040002110BD0B46D340D04020247F
:10017000A21A91400843194610BD421C0178401C48
:100180000029FBD1801A7047F8B502464A40D40FC7
:1001900042004B0052085B089A4202D202460846CF
:1001A00011464A0023D0C30D4A00DDB2120EAD1A2B
:1001B000202D35DA49020126490AF6058A19002C54
:1001C00000D0524220214F1B1146B9402A4110183D
:1001D000C20D9A4221D0002C17D0012D08DCDA057F
:1001E000801AD20F8019D207DBB200F008F9F8BDEF
:1001F000DA05801A012340001B06C01880185A42F5
:100200008018CA0F1043490007E04908C20711438C
:10021000DA05801A80194008801800F0E8F8F8BD67
:1002200061000122511A001BF7E70122D207514059
:10023000AAE70122D2075040A6E7024670B54A401D
:10024000D30FDB0740002DD04A002AD0010E140E38
:10025000000212020919400A520A8418E5010446F4
:100260005443000A120A2E045043A4194219200CC8
:10027000C543AA18120C0125AD03521C52191204D1
:100280007F39240400D0521C104301D44000491E81
:10029000C2B20C06C0092018401C4008802A02D0B7
:1002A00003E0002070BD40084000002900DA002073
:1002B000184370BD70B502464A40D50F40004A0051
:1002C000ED0740085208002814D0002A12D0C40DAF
:1002D000D30D41020120C0055202490A520AE41A14
:1002E000091812187D34914201D3641C00E04900C2
:1002F000002C01DA002070BD0023914201D3891A3D
:100300000343400849000028F7D100290AD0914250
:1003100002D10121C90705E0914201D2012101E08A
:100320000121C943E005C018401900F060F870BD14
:1003300010B500229623114600F061F810BD41006F
:1003400040020122400AD205090E80187F2901DAF5
:1003500000207047962903DC9622511AC840704746
:10036000963988407047C20FD207400040080BD032
:10037000C10D0723DB01C91840020905400A1143DA
:10038000C208400711437047002001467047F0B58E
:100390001FB40646002082B005464024019100901B
:1003A0001BE0019922460F463046FFF7D5FE049A1E
:1003B000059B801A994110D310461946224600F039
:1003C0002FFA361A8F410197224601200021009F03
:1003D00000F026FA38184D4100902046641E00288F
:1003E000DFDC019B00982946324607B0F0BD0029AA
:1003F00004DA401C490001D140084000704770B445
:100400000024050C05D11024000402D1002921D0BC
:100410001124050E01D100020834050F01D100019D
:10042000241D850F01D18000A41C002801DB4000A1
:10043000641C002908D020252E1B0D46F540A14044
:1004400000D001212943084301061B1B000ADB1DC4
:1004500002D5002070BC7047DB05181880180029F1
:10046000F8DA401C4900F5D170BC400840007047E4
:10047000F0B507460846584087B0C00F04904800C2
:100480000E46590040084908BC1A884105D2384632
:1004900031461E4617460B46024658004008104398
:1004A0004CD0300D039040055900400D490D05908A
:1004B000401A0290402872DA18030121000B090546
:1004C0000843019004980092002805D001995242F7
:1004D0000020884100920190029840210A1A019957
:1004E000009800F09DF905460C466B4607CB00F0DE
:1004F000A7F9C0197141039A0E0D0023D717564072
:100500001A467A40164344D0049A002A2DD0029A03
:10051000012A039A15DC1205C01A914101263605FD
:10052000001C7141D20F059ED207009301920296E2
:100530002A46234600F0A4F907B0F0BD38463146FC
:10054000FAE71605224A0F46B218C01AB741012130
:100550000905001C4F4100187F41114618187941C8
:10056000E20F10436D19644113E0E2076D08154373
:100570006408C2071443039A01261205C01A914168
:100580003605001C7141CE07400830434908C018A9
:1005900051412A46234600F066F9CDE7FFE704986B
:1005A00001224000C117121A00238B4104983146E2
:1005B000C417381AA141EEE730B40124E4076340C0
:1005C00030BC55E730B40124E407614030BC4FE74C
:1005D0000000E0FFF0B51FB488B00B990998002423
:1005E00048400999C00F490049080991C0070B9973
:1005F0000090490049080B9109990898A6460843BC
:100600001CD00B990A98084318D00998012440007F
:10061000420D4800410D099824050003000B2043BA
:1006200009900B980003000B20430B9050181C49B5
:100630004018002201901446104605E000200146B3
:100640000DB0F0BD032801DA034600E003239C4609
:10065000C11A0AAE0AE05F0008ADED5B4F00F75B20
:100660007D430027AA187C41491C5B1E6145F2DDD1
:10067000410004AB5A522104120C0A43240C401CC2
:100680000828DFDB019802900099704601910090E4
:10069000059B049A0799069800F0F2F8D0E700004D
:1006A0000DFCFFFFF0B50C465C4085B0E40FE4079D
:1006B00003944C00002664085900944649080246F9
:1006C0000296224321D062460A431ED06200570D93
:1006D0004A000E032303550D012402462C4924052C
:1006E000781B1B0B360B40182343264361460090B2
:1006F0001C46501AB44103D30098401C009002E0FD
:10070000921800985B41002803DA0020014605B0EA
:10071000F0BD0020012109050746864611E0644628
:100720001D46141BB54106D36546521BB3417446A2
:1007300007430C43A646CD074008490828439218B2
:100740005B4105460D43EAD11046184313D060467D
:10075000194650407140084306D06046101AB34114
:1007600006D20122002306E000220123DB0702E07B
:100770000122D2435310009874460105381C614190
:10078000029C039D0019694100F06DF8BFE700006D
:10079000FD0300004A0009030123090B1B0519434F
:1007A0000A4B10B5520D9A4202DA0020014610BDE4
:1007B000064B34339A4203DC9A1AFFF7CDFC10BD86
:1007C000034BD21800F02CF810BD0000FF0300000E
:1007D000CDFBFFFF10B5002904DB0124E4074042F4
:1007E0008C412146002B04DB1C460123DB075242CF
:1007F000A341994200D1904210BD0000064C012552
:10080000064E05E0E36807CC2B430C3C98471034B8
:10081000B442F7D3FFF758FC2054000840540008B6
:1008200010B5202A04DB0146203A9140002010BD7B
:10083000914020239C1A0346E3401943904010BD89
:1008400010B5202A06DBCB170846203A1041C11705
:100850000B4306E00B461341D0402024A21A9140DE
:100860000843194610BD10B5002B08DA0024401CBF
:10087000614192185B411A4301D14008400010BD0C
:10088000F0B51FB482B005460C0003D0084603F053
:1008900049FE02E003F046FE203002460090214669
:1008A0002846FFF7BDFF049B059A04460F461843F0
:1008B0001143084314D0184610431BD00098402120
:1008C0000A1A18460599FFF747FC05460E46009A96
:1008D00005990498FFF7A4FF084305D0012004E020
:1008E0002046394607B0F0BD0020C11705430E432E
:1008F0002C43374300990E986305401A7905E40AA2
:1009000000220C43FD0A0A3002D500200146E9E727
:100910000105101969410C9C0D9D00196941FFF7F3
:10092000A2FFDFE770B58C180578401C6B075B0FE2
:1009300001D10378401C2A1106D10278401C03E043
:1009400006780E70401C491C5B1EF9D12B0705D49C
:100950000023521E0DD40B70491CFAE70378401C8B
:10096000CB1A921C03E01D780D70491C5B1C521EB3
:10097000F9D5A142D8D3002070BD70B504460068F7
:100980008168490720D5816810264907002905DAC2
:100990008168890702D481683143816000F006FDD7
:1009A00005460DE000F002FD401B022808D9606CEE
:1009B00030436064A06C01210843A064084670BD08
:1009C000206880684007EDD4002070BD10B5014656
:1009D000406A426C50231A420AD1416C01225202F1
:1009E000114341640168CA681205920F05D020E0E6
:1009F000C06B026B0846904710BD026A002A18D1EE
:100A00000A68120715D58A6853070122002B09DBF3
:100A10004B680C24A3434B60416C13029943114370
:100A2000416406E0416C202319434164816C114309
:100A3000816400F0E5F910BD10B5406A416C4022B8
:100A400011434164816C04221143816400F0DAF99E
:100A500010BD10B5406A00F0D4F910BDF8B50446D9
:100A6000006881688907890F012928D10168C907B1
:100A700002D1C168090422D58168052211401025E0
:100A8000012601290FD1816802221143816021686A
:100A90000320086000F08AFC07460CE000F086FCAA
:100AA000C01B022807D9606C28436064A06C3043E7
:100AB000A0640120F8BD20688068C007EED1002046
:100AC000F8BD0000F8B50446002000902068816859
:100AD0008907890F012905D10168C9072CD1C1688F
:100AE000090429D48168154A1026114001250029DE
:100AF00015D1816829438160124811490068FFF7C8
:100B000015FB00E0401E00900028FBD100F04EFCD9
:100B100007460CE000F04AFCC01B022807D9606CB5
:100B200030436064A06C2843A0640120F8BD2068B5
:100B30000068C043C007EDD10020F8BD1700008059
:100B400040420F0000000020002070470020704746
:100B500010B5064900220C1FA06802F05AFF21467A
:100B6000A06802F04CFF002010BD00001C00002017
:100B700070B5074D04460146A86802F040FFA8681A
:100B800002F017FF204604F063FA002070BD000059
:100B90001800002010B50B4C0A4603464321A068FC
:100BA000C9000958FF31FF3102314969002901D0DC
:100BB000012010BD194602F02CFFA06802F06EFF64
:100BC00010BD00001800002010B5024800F091FA96
:100BD00010BD0000E403002010B50446006805497C
:100BE00040181421FFF7A2FA800020640248E06355
:100BF00010BD0000F8FFFDBF0000024030B5056CDD
:100C00000124AC40C56B6C60046863604368102BC2
:100C1000036803D099600068C26030BD9A600068C4
:100C2000C16030BDF8B50546044640352878002639
:100C3000012808D001202870206881688907890F61
:100C4000012908D101E00220F8BD0168C90738D1A7
:100C5000C168090435D4616CFF220132914302223C
:100C600011436164C1688907890F0091C1688908CF
:100C70008900C1602068816892071143816000F09B
:100C800095FB07460EE000F091FBC01B022809D936
:100C9000606C0221884310210843606400202870A2
:100CA0000120F8BD206880680028ECDB2068C1685E
:100CB000009A1143C160606C80088000401C606431
:100CC00004E0606C20210843606401260020287045
:100CD0003046F8BDF8B5002504464034009522782A
:100CE000012A3BD00122227003689E68760776D4E1
:100CF0003F4F4E68BE4254D09E6A0F78BA401643AA
:100D00009E620123826B1B079A421FD0012A1DD0CD
:100D1000022A1BD0032A19D0042A17D0052A15D07D
:100D2000062A13D0072A11D002688B685669760705
:100D3000760FB3420AD05369DB08DB0053610068C9
:100D400042690B7A5B075B0F1A43426108681028FF
:100D500006D0112804D0122802D045E00220F8BDA8
:100D6000244A9368102809D011280AD001200006CF
:100D7000034393600868102806D035E00120C005C1
:100D8000F6E701208005F3E71C481B490068FFF7E0
:100D9000CDF90A21484300E0401E00900028FBD115
:100DA00022E0986A0E78B240904398620868102852
:100DB00003D0112801D0122816D10E498A681028B4
:100DC00007D0112808D00120000682438A600BE07A
:100DD00005E00120C005F8E701208005F5E7416C3A
:100DE0002022114341640125002020702846F8BDCF
:100DF000011000000027014040420F0000000020C9
:100E00007047704770470000F8B500250446002879
:100E100003D0606C002802D008E00120F8BD00205B
:100E2000A06440210855204600F0A8F8606C10220C
:100E3000C006002870DB2068816849076CD4616CAB
:100E40001301994302231943616481688907890F5B
:100E5000012905D10168C9070FD1C16809040CD463
:100E6000C16818239943A3681943C16020680169C8
:100E7000636889008908194301612068C1683D4B96
:100E80001940C160A069E1698003C9030843216A70
:100E90004B031843636B012B02D001231B0300E0BB
:100EA00000231843E36818432369022B09D0002369
:100EB0001843236B666A5B0018430123012E02D09E
:100EC0000AE00423F4E7002927D0616C202631438F
:100ED0006164A16C1943A164A16A0E46FF3EC23E43
:100EE00002D0E66A314308432168CE680643CE60EB
:100EF0000126A16B3607B14213D0012911D0022976
:100F00000FD003290DD004290BD0052909D00629BB
:100F100007D0072905D010E028E001210904084383
:100F2000DAE721684E69F608F6004E6121684E69DD
:100F3000278F7F077F0F3E434E612168C9680E4EA1
:100F40003140814207D10020A064606C800880009D
:100F5000401C606408E0606C0221884310436064B8
:100F6000A06C1843A06401252846F8BD606C1043AE
:100F70006064F8E71902FEFFE7FF3F8370B505469E
:100F80000068194986B088422BD1184882694115FA
:100F90000A4382618069002608400590062000907F
:100FA00003200190092069460296C00600F060F90E
:100FB0000F48104C41C48020266060604000A06053
:100FC0008000E0602020666120610A48083C00F053
:100FD000DFF8002803D0752107A003F073FAEC6353
:100FE000656206B070BD00000024014000100240A0
:100FF00008000240E40300202E2E2F5372632F734B
:10100000746D3332663078785F68616C5F6D7370D1
:101010002E630000F7B5044600680025806840078D
:101020003DD426464036307801280AD00127377053
:10103000E069012807D02046FFF744FD050002D0F3
:101040002EE00220FEBD606C16490840FF210131F0
:10105000084360640020A0643070E16B124888622D
:10106000E16B1248C862E16B1148086321681C20DB
:101070000860206841681022114341602068C168FF
:101080003943C1602168E06B4031029B019A00F056
:10109000ABF82068816804221143816000E00225DA
:1010A0002846FEBDFEF1FFFFCD090008530A0008E7
:1010B000390A000870B505460446403528780128ED
:1010C00007D001262E702046FFF757FC002802D0DB
:1010D0000CE0022070BD2046FFF7C0FC002805D1BF
:1010E000616CFF2201329143314361640021297018
:1010F00070BDF0B4C16B0D6801680C680422066C09
:101100001346B3402B420DD063070BD50B689B06EB
:1011100002D40B6893430B60016C8A40C16B4A6038
:10112000C16A19E00227B74002462F40012320324E
:10113000002F15D0A70713D50C68A40604D40C689B
:101140000A25AC430C605370036C02219940C36BB9
:10115000596000211170816A002916D0F0BC08473F
:101160000827B7402F4210D024070ED50C680E2553
:10117000AC430C60046C1946A140C46B616083638E
:10118000537000211170016BE6E7F0BC704700005E
:1011900070B5040024D00220214620310D4648704D
:1011A000226811680F48A3680140606826691843E7
:1011B000E3683343184363691843A3691843E36939
:1011C0001843084310602046FFF706FD0020A06288
:1011D000E06220636063A06301216970287070BDC4
:1011E000012070BD0FC0FFFFF8B504468C462030CB
:1011F00001780025012909D00126067041780027D1
:10120000012905D0077002252846F8BD0220F8BD47
:1012100002214170A7632068016849084900016004
:1012200061462046FFF7EAFCE06A00282068016872
:1012300002D00E22114306E00A2211430160206809
:101240000168042291430160206801683143016014
:10125000DAE731B500F0AAF8009C0546601C00D022
:10126000641C00F0A3F8401BA042FAD338BD000074
:10127000F8B5002389E001249C402A46A446224078
:101280007ED04C68022C01D0122C0CD1DC08A400BA
:1012900027183C6A5D07ED0E0F26AE40B4430E6979
:1012A000AE4026433E6205685E000324B4400F79D9
:1012B000A543BF07BF0FB7402F4307604D68012DFF
:1012C00005D0022D03D0112D01D0122D0ED185682D
:1012D000CF68A543B7402F43876047686546AF4353
:1012E0000D79ED06ED0F9D403D434560C568A54372
:1012F0008C68B4402C43C4604C68E40044D5264C50
:10130000A56901263543A561A4699D083440009470
:10131000224CAD002F19BC689D072E0F0F25B5403C
:10132000AC430925ED06A84201D100250AE01C4D79
:10133000A84201D1012505E01A4DA84201D102259C
:1013400000E00525B5402543BD60174C25684E6873
:101350009543F60300D51543256065684E689543AF
:10136000B60300D515436560A5684E689543F6023F
:1013700000D51543A560E5684E689543B60200E0C8
:1013800002E000D51543E5605B1C0A681546DA40AB
:1013900000D070E7F8BD00000010024000000140DE
:1013A00000040048000800480004014001480068AB
:1013B000704700000400002002480168491C0160D9
:1013C000704700000400002010B506480168102294
:1013D00011430160002000F007F800F017F800202A
:1013E00010BD00000020024010B5044600F0CEFE03
:1013F0007D21C900FEF79AFE01F01CF9002221466A
:10140000501E00F02FF8002010BD000008B50E4857
:10141000816901221143816180691040002200909E
:101420001146501F00F01EF800221146901E00F0D9
:1014300019F800221146501E00F014F80348016804
:1014400010221143016008BD00100240000001405D
:10145000C106C90E0120884001490860704700009C
:1014600000E100E010B501F09DFD10BD10B50C06C7
:1014700006D54906490E1C2461430818283004E0AB
:101480001C2461430818FF30093099B2002A06D0A5
:1014900001228272C180190C0181002010BD00223E
:1014A00082728180F9E71C224A43121810B5FF307E
:1014B000FF300230926BC06902F09DFC10BD1C220F
:1014C0004A43121810B5FF30FF32FF3001320230AC
:1014D0009269C06902F0EAFC10BD0000F0B54A064E
:1014E000520E13461C256A43CC091218002C01D059
:1014F000283201E0FF32093204461370C909FF3473
:101500005170E134217A01293DD001212172957A6F
:10151000494B002D4949557837D0002D056816787C
:10152000AC465BD0B600AD5B6F0404D5444F0D40B4
:101530003D436746BD5305681678AC46B600AD5BC3
:101540006F0605D53C4F0D4040373D436746BD53C0
:1015500015780668AF00F55B0D4039490D43F5532A
:10156000364F117830373D40066889001D4375526B
:101570001178334A00688900F13A15401D434552FD
:1015800000202072F0BD0220F0BD002D0568167805
:10159000AC4610D0B600AD5B6F0605D50D402649B0
:1015A00040310D4361468D5305681078234A810010
:1015B000685A30320EE0B600AD5B6F0404D50D40C2
:1015C0001F490D4361468D53056810781C4A810000
:1015D000685AF13A104018436852D1E7B600AD5B43
:1015E0006F0404D5164F0D403D436746BD53056853
:1015F0001678AC46B600AD5B6F0605D50E4F0D40B4
:1016000040373D436746BD5315780768AE00BD5B64
:101610000D40094940310D43BD53094F1678F13F44
:101620003D400168B6001D438D531178034A89007F
:1016300000683032A1E70000808000008F8F00003A
:1016400080C00000F0B54B06CA095B0E002A04D02A
:101650001C225A431218283204E01C224A43121852
:10166000FF3209320024947013700346C909FF3316
:101670005170E133197A01291AD001211972517878
:101680001A4C00291178066814D08D00715B4F0642
:1016900003D52140164C21437153117800688A000C
:1016A000124C815A3034214010246140202414E02F
:1016B0000220F0BD8D00715B4F0403D521400D4C1D
:1016C00021437153117800688A000A4C815AF13C19
:1016D000214001242403614064006140044C403CEB
:1016E0002143815200201872F0BD00008F8F00004E
:1016F000C080000080C000004906490E1C225143F2
:101700000818FF300130008C80B27047F0B54D06EC
:101710006D0E2E461C246543CF092C18002F01D0D6
:10172000283401E0FF3409342670C909617001468C
:10173000FF31E260E131E3708C46097A01290DD076
:10174000012261460A72E2789349002A08D0012AF0
:1017500020D0022A0DD0032A25D111E00220F0BDAD
:10176000237802689B00D55A0D40FF35FF350235BE
:1017700004E0237802689B00D55A0D40D55212E050
:101780002278036892009D5A0D400321490269188E
:10179000995208E0237802689B00D55A0D40012138
:1017A00089026918D15226780768B5007B5B7B49AE
:1017B0007B4A0B40134333437B53A57A002D53D010
:1017C0002578784E0B400768AD0033437B53E388A0
:1017D00050265D0803686D00F65AF6182378DF007E
:1017E00001239B02FB18F552238950265D080368EC
:1017F0006D00F65AF6182378DF005311FB18F552E6
:1018000063780768002B237875D09D007B5B5E04AE
:1018100003D5654E0B4033437B53237807689D0007
:101820007B5B5E0604D55E4E0B40403633437B53F4
:10183000237805689E00AB5B0B405B490B43AB53C1
:10184000564E2178303633400568890013436B5279
:101850002178554C00688900F13C234013434352E2
:10186000002061460872F0BD6378002BA3881FD06A
:101870005D0803685026F65A6D00F6182378DF00DD
:1018800001239B02FB18F552237807689D007B5BC0
:101890005E0604D50B40424940310B437B5301683F
:1018A00020783E4C8300C85A30342040202440E049
:1018B0005D0803685026F65A6D00F6182378DF009D
:1018C0003A4BFB18F55203685025ED5A374EEB188A
:1018D0002578B61CED00AD195E19E3683E2B0BD9D7
:1018E000DD022D0CDB0601D16D1EADB2AB02012570
:1018F000ED032B4307E020E0DD032D0CDB0701D0D7
:101900006D1CADB2AB023380237807689D007B5B12
:101910005E0403D50B4024490B437B5301682078B8
:10192000214C8300C85AF13C20400124240360402C
:10193000640060401043C85292E79D007B5B5E04E8
:1019400003D5194E0B4033437B53237807689D0022
:101950007B5B5E0604D5124E0B40403633437B530F
:10196000237805689E00AB5B0B400D4940310B436B
:10197000AB530D4E2178F13E3340012636037340C0
:10198000760073400568890013436B522178034C3D
:1019900089000068303460E78F8900008F8F000075
:1019A000808000008081000080C0000004040000EE
:1019B000F0B54D066D0E1C246C432418FF34093419
:1019C000636122610022A26162702570E5681E4693
:1019D000AB4201D92B46F21A6261A67A490601226E
:1019E000890DD203002E2F4D06680CD05027BF5B07
:1019F000BE192F1FC91976183E2B15D9D902090C0B
:101A0000DF060CD00DE05027BF5B4919BE197518D1
:101A100020E08902114300E08902298032E0491E5A
:101A200089B28902114306E0D903090CDF0701D00E
:101A3000491C89B2890231806178002902D00129CC
:101A400018D01FE001685026765A71182678F600E3
:101A500075194D193E2B06D9D902090CDB06D8D1D0
:101A6000491E89B2D5E7D903090CDA07D4D0491C3D
:101A700089B2D1E701685022525A51182278D20017
:101A800052198B5201682078074B8200885A1840FF
:101A900001231B0358405B005840044B18438852F5
:101AA0000020F0BD060400008FBF00008080000011
:101AB000F0B50246FF32E132137A012B0BD001243C
:101AC0004F06CB097F0E1472002B06D01C237B43DC
:101AD0001B18283306E00220F0BD1C234B431B18C3
:101AE000FF3309339C701F70CE095E7001242403FC
:101AF0001025114B002F0BD04906C90D002E10D018
:101B000004680E4E605A304068401843605210E03E
:101B100001680B4E088830406040684018430880D8
:101B200007E00568064E685A303E30406040184372
:101B3000685200201072F0BD80800000BF8F00004E
:101B4000BFBF0000F0B506461D464806400E1C23E8
:101B500043439C19E563A2630022226401232834D5
:101B600063702070E0682B46854203D90546181A39
:101B7000606100E06261A07A2A4F002810D02278CC
:101B800030689200825C49065206890D002A16DAF6
:101B90005022125A10183A1D89184552228914E011
:101BA000ABB2A2882169306801F0CFFB30685021C8
:101BB000095A08182178C900C919455220E0502255
:101BC000125A1018C9194552E288ABB2216930681F
:101BD00001F0BBFB61781448002902D0012907D02D
:101BE0000EE0217832688B00D15A01400F4805E0A1
:101BF000217832688B00D15A01400D480143D152FF
:101C0000207831688200084B885A303318401023FE
:101C1000584020235840054B403B18438852002031
:101C2000F0BD0000020400008F8F0000C0800000A3
:101C300080C0000070B50446006840308088C00B4A
:101C400002D0204601F0D0F9206840308188490553
:101C50000AD58188334A11408180204600F0DAF8A5
:101C60000021204600F000F92068403081884904B6
:101C700003D581882C4A11408180206840308188BA
:101C8000890403D58188294A114081802068403029
:101C900081880425C904002910DA0188A94301803C
:101CA000BD202168000240310880204600F0BEF8C7
:101CB0002068403081881E4A114081802068403071
:101CC0008188090517D581881A4A114081802068CA
:101CD000403001880822114301802068403001888B
:101CE00029430180206840308088C043C00402D569
:101CF000204600F0E3F8206840308188890506D549
:101D000081880D4A11408180204600F0A5F82068A6
:101D100040308188C90503D58188084A11408180F7
:101D200070BD0000FFFB0000FFBF0000FFDF0000F0
:101D3000FFEF0000FFF70000FFFD0000FFFE0000C6
:101D4000F8B500270446002807D02646FF36E136BE
:101D5000707A0025002802D005E00120F8BD357218
:101D6000204600F03BF80320707201210BE01C209C
:101D7000784302191046203041720772C5725563CC
:101D800095637F1CD5636068B842F0D800200BE0F3
:101D90001C2242431219FF32013255721072D57261
:101DA00055619561401CD56162688242F0D8206817
:101DB00040300180206840300580206840308580B8
:101DC000206840300582BF20226800024032108027
:101DD0002034257171720020F8BD000008B500683C
:101DE0000A49884210D10A48C2690121C9050A433B
:101DF000C261C06900220840009011461F20FFF711
:101E000031FB1F20FFF724FB08BD0000005C0040F1
:101E10000010024010B5C41DFF34FA340121E069FE
:101E200002F04BF9E06902F010F910BD10B504465C
:101E30008069002806D007480169062291430161A4
:101E400001F09CFAFF34FF340234E06902F020F91B
:101E500010BD000000ED00E0FF3010B5FF30023093
:101E6000C06902F01BF910BD0246FF32E132137A5D
:101E7000012B08D001231372002906D020300171F4
:101E800000201072704702207047006880214030A7
:101E90008181F5E710B5872189000A580146FF3195
:101EA000ED31104602F01FF910BD00684030018B83
:101EB0000122D203114301830020704710B504466C
:101EC000FF30FF300230C06902F062F9A0690028DB
:101ED00004D00348016906221143016110BD0000CE
:101EE00000ED00E00F490B69CA0313430B610B6956
:101EF00093430B6106C811430268114342680A43C9
:101F000001890B04084913434B600A683F231B02F5
:101F1000C0689A43000202430A60086860221043C6
:101F20000860704700100240006C0040F8B504469D
:101F300000683E4DC00352D5E8690026C00007D4B2
:101F4000E96928040143E961E9690140012600913A
:101F500037480168C90510D4016882151143016032
:101F6000FFF724FA074604E0FFF720FAC01B6428B5
:101F700024D82F480068C005F6D5286A03273F02F9
:101F8000384020D06168394081421CD0286A2A6AD2
:101F9000B843012109040A432A622A6A8A432A6251
:101FA0002862C0070FD0FFF701FA009008E0FFF7A2
:101FB000FDF90099411A1F48814201D90320F8BD5B
:101FC000286A8007F3D5286A6168B8430843286205
:101FD000002E04D0E969012000078143E9612078DF
:101FE000C00705D0286BA1688008800008432863DB
:101FF0002078800605D5286B10218843E1680843C6
:1020000028632068800305D5286B80218843616997
:10201000084328632088400505D5286B4021884364
:102020002169084328630020F8BD00000010024029
:102030000070004088130000F8B505464E480E4673
:102040000068C007C00FB0420AD24B480168490877
:102050004900314301600068C007C00FB04270D131
:102060002878464C800705D56068F0218843A96828
:10207000084360602878C00753D06868012817D0EB
:10208000022818D0032819D021688907002958DAB6
:1020900061688908890001436160FFF787F9696811
:1020A0000746012913D002291DD0032927D034E087
:1020B00021688903EAE721688901E7E7616BC903C1
:1020C000E4E7FFF773F9C11B2D48814223D860680C
:1020D0000007800F0128F4D123E0FFF767F9C11B47
:1020E0002748814217D860680007800F0228F4D182
:1020F00017E0FFF75BF9C11B214881420BD86068EC
:102100000007800F0328F4D10BE0FFF74FF9C11B44
:102110001B48814201D90320F8BD60680007800F89
:10212000F3D115480168C907C90FB1420BD901683D
:1021300049084900314301600068C007C00FB04240
:1021400001D00120F8BD2878400706D56068072136
:1021500009028843E9680843606000F02DF861686F
:10216000084A0906090F515CC84007490860002069
:10217000FFF73AF90020F8BD0020024000100240AD
:1021800088130000D05200080000002001480068B9
:1021900070470000000000200448054900684968B5
:1021A000044A4905490F515CC840704700000020AF
:1021B00000100240E052000830B516A30FCB89B0E2
:1021C0006C460FC417A30FCB0FC41A494A680C20E2
:1021D000144604401848042C05D0184B082C04D091
:1021E0000C2C00D1184609B030BD9402240F6D4666
:1021F0002C5DC96A04AD0907090FD203695C920F0F
:10220000022A02D0032A00D11846FDF78FFF60434F
:10221000E9E7000002030405060708090A0B0C0D94
:102220000E0F10100102030405060708090A0B0C23
:102230000D0E0F100010024000127A00006CDC023C
:10224000FEB504460078F04EF04DC00748D06868EF
:102250000007800F01281FD068680007800F022840
:1022600004D16868C003800F022815D06168012975
:1022700019D001208004002901D0052917D0296830
:10228000B1432960296881432960606800281BD018
:10229000FFF78CF8074613E02868800320D56068B4
:1022A000002876D01CE0286830432860EDE72968D4
:1022B00001432960F7E7FFF779F8C01B642869D864
:1022C00028688003F7D50BE0FFF770F8074604E0B5
:1022D000FFF76CF8C01B6428F1D828688003F7D496
:1022E000207880073ED568680007800F14D06868A2
:1022F0000007800F022804D16868C003800F0128FE
:102300000AD0E068002828681DD001210843286011
:10231000FFF74CF807460BE0286880070BD5E0680C
:10232000012836D107E0FFF741F8C01B0228C6D8C4
:1023300028688007F7D52868F82188432169C900F3
:10234000084328600EE0400840002860FFF72EF8A0
:10235000074604E0FFF72AF8C01B0228AFD8286818
:102360008007F7D42078000724D5E0690028686A40
:1023700011D0012108436862FFF718F8074604E00E
:10238000FFF714F8C01B022899D8686A8007F7D5B0
:1023900010E036E1D1E0400840006862FFF706F83F
:1023A000074604E0FFF702F8C01B022887D8686AD6
:1023B0008007F7D4207804274007002861DA00203E
:1023C0000190E869C00008D4E969B8060143E961F1
:1023D000E96901400120009101908D480168C9051B
:1023E00011D40168821511430160FEF7DFFF0090F0
:1023F00005E0FEF7DBFF0099401A642897D884486F
:102400000068C005F5D5A06801280AD0002801D0D1
:10241000052811D0286A400840002862286AB8437D
:1024200002E0286A012108432862A068002812D02F
:10243000FEF7BCFF00900AE0286A38432862F0E704
:10244000FEF7B4FF0099411A7248814275D8286A94
:102450008007F5D50DE0FEF7A9FF009006E0FEF736
:10246000A5FF0099411A6B48814266D8286A800707
:10247000F5D40198002804D0E969012000078143C0
:10248000E9612078C00635D5606901280CD0401D6F
:10249000686B24D038436863686B40084000686309
:1024A000FEF784FF074622E0686B38436863686B79
:1024B000012108436863FEF779FF074604E0FEF751
:1024C00075FFC01B022838D8686B8007F7D5686B8A
:1024D000F8218843A169C900084368630AE0B8434A
:1024E0006863F4E7FEF762FFC01B022825D8686B1B
:1024F0008007F7D42078800637D568680007800FFA
:10250000032813D068680007800F022804D1686888
:10251000C003800F032809D0206A0028686B16D0FA
:1025200030436863FEF742FF06460CE0686BC00369
:102530001BD5206A012864D117E05BE0FEF736FF67
:10254000801B022856D8686BC003F7D50DE0B04356
:102550006863FEF72BFF064604E0FEF727FF801BAB
:10256000022847D8686BC003F7D4606A002846D0B9
:1025700069680907890F022943D001263606022817
:10258000286805D0B0432860FEF710FF044633E00A
:10259000B0432860FEF70AFF074604E0FEF706FF97
:1025A000C01B022826D828688001F7D4E86A216B6E
:1025B000000900010843E862A16AE06A084369680B
:1025C0007B22D20391430843686028683043286027
:1025D000FEF7ECFE044604E0FEF7E8FE001B0228CE
:1025E00008D828688001F7D509E0FEF7DFFE001B58
:1025F000022801D90320FEBD28688001F5D40020FF
:10260000FEBD0120FEBD00000000010000100240E0
:10261000007000408813000004220449042808695F
:1026200002D09043086170471043FBE700E000E0F0
:1026300070470000094910B5401E884201D90120A9
:1026400010BD074C60610321081F00F0ABFC0020A7
:10265000A06107202061002010BD0000FFFFFF00E7
:1026600000E000E010B5FFF7E3FF10BD70B50346D2
:1026700020331A7F012A27D001241C7702225A779F
:102680000326CA683602B2438E6800253243A6028A
:10269000B2434E6800683243E602B2430E683243EA
:1026A0002603B2430E6932436603B2434E69896919
:1026B0003243A603B2430A43E603B2430A434264E9
:1026C0005C771D77002070BD022070BD70B502469A
:1026D0002032137F012B1BD0012313770224547760
:1026E000046865687026B5436560046865680E68AF
:1026F000354365600468A5688026B543A560006819
:10270000846849680C43846053770020107770BD5B
:10271000022070BD70B5040005D025462035687FC5
:10272000002802D006E0012070BD00202877204656
:1027300000F00AF802206877211D206800F09EFE54
:1027400001206877002070BD00B51B4902681B4856
:1027500087B08A4205D18269C1140A4382618069C7
:102760001DE001239B0702219A4213D1C369012274
:102770001343C361C069009210400590002002908D
:1027800003900191049109206946C006FEF770FD8F
:1027900007B000BD0A4B9A4204D1C26907E0084065
:1027A0000590F5E707498A42F2D1C26989150A43C3
:1027B000C261C069F3E70000002C01400010024034
:1027C00000040040002000400222014620314A77E8
:1027D00002681368012003431360487700207047A4
:1027E000F8B5054604462035287F012817D0012773
:1027F0002F7702206877226890687726FF23B043FE
:102800001B02984390600868502837D00EDC2028BF
:1028100057D006DC00284ED0102840D14EE00220D0
:10282000F8BD302850D0402839D13CE060282DD068
:10283000702817D001221203801A0ED090422ED198
:10284000CB684A688968206800F065FE2068816866
:10285000012292031143816021E020688168C90848
:10286000C900F8E7CB684A688968206800F053FE21
:1028700021688868B0433043886010E0CA684968BE
:10288000206800F07AFF5021206806E0CA68496895
:10289000206800F0A9FF6021206800F047FE6F77F4
:1028A00000202877F8BDCA684968206800F065FFF5
:1028B00040212068F1E700212068EEE71021206820
:1028C000EBE720212068E8E730212068E5E7F8B54C
:1028D000064604462036307F0D4601283DD00120B3
:1028E000307702207077002A39D0042A46D0082A8F
:1028F00057D02B68297B20689E468C466B68016AFE
:102900000122120391430162C169026A03273F0257
:10291000B9431B020B430F2109038B43614609078F
:10292000090C194305235B039A4373460A273B406E
:102930001B031343C16103622068C1690322920231
:102940009143C1612068C169AA6812021143C16143
:102950000120707700203077F8BD0220F8BDEB68C9
:1029600006CD083D206800F019FF206882690C211F
:102970008A43826120688169AA680FE0EB6806CD0E
:10298000083D206800F043FF206882690321890226
:102990008A43826120688169AA68120211438161B9
:1029A000D6E788CD287921688446086AFF2201325B
:1029B00090430862C8690A6A800880003843F0279B
:1029C000B84367463F073F0E074305204002824356
:1029D0000A20034018021043CF6108622068C169D1
:1029E0000C229143C1612068C1692A68AEE770B5C5
:1029F000040005D025462035687F002802D006E077
:102A0000012070BD00202877204600F00AF802203F
:102A10006877211D206800F031FD012068770020D3
:102A200070BD704710B504460068012200F068FDD3
:102A300020680168012211430160002010BD0000E0
:102A400000B50068094985B088420DD1102000907A
:102A5000022001900020029003900420049009209D
:102A60006946C006FEF704FC05B000BD002000402A
:102A700070B504462034237F012B0CD00125257727
:102A800002236377002A08D0042A0AD0082A0CD02F
:102A90000C2A11D10DE0022070BD006800F04EFD3F
:102AA0000AE0006800F086FD06E0006800F0BCFD6A
:102AB00002E0006800F0F4FD65770020207770BD2B
:102AC00070B5040005D025462035687F002802D067
:102AD00006E0012070BD00202877204600F00AF8AB
:102AE00002206877211D206800F0C8FC012068776B
:102AF000002070BD7047000010B504460068012238
:102B000000F0FEFC0A482168814205D00948814254
:102B100002D00948814204D1486C0122D2031043FB
:102B2000486420680168012211430160002010BD43
:102B3000002C01400044014000480140F8B5064621
:102B400004462036307F0D4601280DD00120307715
:102B5000022070770427002A08D0042A16D0082AF9
:102B60002AD00C2A4DD137E00220F8BD206800F0B1
:102B7000E5FC206881690822114381612068816930
:102B8000B9438161206881692A6912E0206800F0F8
:102B900011FD206882690121C9020A43826120680F
:102BA00081690122920291438161206881692A69C9
:102BB00012021143816124E0206800F035FD206895
:102BC000C26908210A43C2612068C169B943C16171
:102BD0002068C1692A6912E0206800F061FD206860
:102BE000C1690122D2021143C1612068C269012179
:102BF00089028A43C2612068C1692A6912021143AD
:102C0000C1610120707700203077F8BD70B50400F5
:102C100005D025462035687F002802D006E0012037
:102C200070BD00202877204600F00AF8022068775F
:102C3000211D206800F022FC01206877002070BD73
:102C40007047000010B504460068012200F058FCEF
:102C50000A482168814205D00948814202D00948CA
:102C6000814204D1486C0122D20310434864206899
:102C70000168012211430160002010BD002C0140B9
:102C8000004401400048014070B505460446203527
:102C9000287F012814D001262E770220687720464D
:102CA00000F02EFD2068C16840229143C160206879
:102CB000C16812029143C1606E770020287770BD11
:102CC000022070BDFEE700003EB51E481C490160B1
:102CD0004905416000218160C1608161C1610124B9
:102CE00001620422046142614162C0218162046385
:102CF00011024463C162FEF787F8002800D0FEE7A6
:102D000001200003019007200290009469460D48BD
:102D1000FDF7E0FF002800D0FEE7022000906946A2
:102D20000848FDF7D7FF002800D0FEE711200090EB
:102D300069460448FDF7CEFF002800D0FEE73EBDFF
:102D4000002401409802002010B5164888B01449AC
:102D5000016000242F218460416004611249846174
:102D6000C160FFF7D7FC002800D0FEE70D48FFF751
:102D70004DFF002800D0FEE760200090FF20F430D7
:102D8000019002940022694604940648FFF7D6FE9B
:102D9000002800D0FEE70348FFF752FE08B010BD40
:102DA00000200040A40300200F27000030B5274872
:102DB00095B02549016026490024264D021D32C2E6
:102DC000046144618461FFF7A5FC002800D0FEE7A0
:102DD000012000030E900EA91C48FFF701FD0028FA
:102DE00000D0FEE71948FFF76BFE002800D0FEE791
:102DF000302012A911C115480839FFF767FC0028D7
:102E000000D0FEE700940195029403940494059485
:102E1000002269460D480694FFF72AFE002800D0DC
:102E2000FEE701200794400308940C9009940A944B
:102E30000B9407A90D940548FFF718FC002800D053
:102E4000FEE715B030BD0000002C0140E402002078
:102E5000BF1200000F27000010B50121224890B0DA
:102E60008907002412C004608460611E046141600F
:102E70000838FFF74FFC002800D0FEE70120400390
:102E8000009001940294694603941748FFF7A8FC48
:102E9000002800D0FEE71448FFF7A9FD002800D065
:102EA000FEE7042008A911C10F480839FFF7ECFE1E
:102EB000002800D0FEE70D940DA90B480E94FFF7F3
:102EC00005FC002800D0FEE703200590049406943A
:102ED000002204A907940448FFF7F9FC002800D059
:102EE000FEE710B010BD00002403002030B51D48DF
:102EF0008DB01B4901602F2100241B4D021D32C2E1
:102F000004618461FFF706FC002800D0FEE7012081
:102F10000003079007A91348FFF762FC002800D0C0
:102F2000FEE71048FFF7CCFD002800D0FEE7302078
:102F30000BA911C10B480839FFF7C8FB002800D0C6
:102F4000FEE7009402940022694606480195049425
:102F5000FFF78EFD002800D0FEE70DB030BD000069
:102F600000040040640300200F27000010B5002279
:102F70000749084800F000FF0749064801F037F903
:102F80000649044800F031FD024801F081F910BD06
:102F90002400002028040020340100200800002024
:102FA000704700008307FF22DB0E9A408907090E55
:102FB000994000280BDA0007000F083883080848FA
:102FC0009B001818C36993430B43C3617047830880
:102FD00004489B001B18186890430843186070470A
:102FE00000ED00E000E400E0F0B585B0044600200C
:102FF000694688802646203678E19A8917073F0F70
:1030000026D0B9000291425A9A80998809047DD548
:10301000BE490A400299425238461C2148430519CC
:10302000FF350935A87A0028206870D029788A00F1
:10303000825A52046CD55022125ACB00B44912184D
:103040005918515A8905890D00917DD0EA88BDE053
:103050009A89D20627D40188AE4A254611400180BC
:1030600020685021095A283508182978CA00A8492B
:103070005118405A8005800D2064A16B0818A06388
:1030800000212046FEF70FFA30790028B4D0686995
:103090000028B1D1307980210843216840318881EE
:1030A0000020307122E12546FF35028809359A80DB
:1030B0009B881B0519D5098A09182878C2009448ED
:1030C000001D1018085A294683059B0DAB61AA887C
:1030D000E431206800F024F920688C4A018811400E
:1030E00001802046FEF7D6FE00E169468988090482
:1030F000D8D58649864F0A40028020685021095A57
:103100003F1D09182878C000C01902E085E03DE0A5
:103110004FE0085A83059B0DAB6108D0AA88296946
:10312000206800F0FDF8A96928694018286100218D
:103130002046FEF7C4F9206801464030008A401856
:10314000C119E8683E2800E044E00AD9C202120C26
:10315000C00601D1521E92B290020122D203104346
:1031600006E0C203120CC00701D0521C92B29002BA
:1031700008802168684A08881040012212035040E4
:1031800052005040654A10430880AFE05021095A70
:103190000A182978CB005E49091D5918515A89052A
:1031A000890D009121D0AA882969009B00F0B8F808
:1031B0001BE05022CB00125A55491218091D59180C
:1031C000515A8905890D009104D02A892969009BEB
:1031D00000F0A6F8297820688A004E4B815A803387
:1031E00019404E4B403319438152A9690098081881
:1031F000A861296900980A182A616B69002B03D01D
:10320000E9680098814204D929782046FEF757F9E9
:1032100003E029782046FEF7CBFB6846808800064D
:1032200064D51C204743206802993A4A415A3D1907
:103230001140029A28358152A87A0028206811D0BE
:1032400029788A00825C52061ED55022125AC90083
:1032500012182F480818105A83059B0DAB6124D013
:10326000EA881EE05021095A09182878C200284827
:103270001018085A83059B0DAB6121D0AA882969D3
:10328000206800F062F81BE05022125AC9001218A0
:103290001F48001D0818105A83059B0DAB6104D010
:1032A0002A892969206800F050F82878226880006F
:1032B000184B115A80331940174BF13319431152EF
:1032C00020685021095A09182878C200104810189F
:1032D000085A8005800DA86129690A182A616B695E
:1032E0002978002B20460DD0FEF72CFC20680146E3
:1032F00040318A886B469A81120400D57DE6002011
:1033000005B0F0BDFEF7CFF8F0E700008F0F00002A
:10331000020400000F8F00008FBF000080800000BB
:10332000101810B5012292025C088018002C07D0FA
:1033300002880A70120A4A70801C891C641EF7D128
:10334000DA0701D00078087010BD101801225B1C4C
:10335000920210B55B088018002B08D04A780C78D0
:10336000120222430280801C891C5B1EF6D110BD14
:1033700010B5FEF721F8FFF775F910BD30B59FB015
:103380000120202500240890009509946846FEF746
:1033900057FF002800D0FEE7072013900320149069
:1033A0000120800216901594012113A8FEF744FE17
:1033B000002800D0FEE7012040041C94179017A8B5
:1033C000FEF7B4FD002800D0FEE71348C269C10330
:1033D0000A43C261C0690D9408401D9088000E9098
:1033E0000E481090222011900F9412950DA8FEF710
:1033F00079FDFEF7CBFE7D21C900FCF797FEFFF7B4
:1034000019F90420FFF708F900221146501EFEF7B3
:1034100029F81FB030BD0000001002407FBB000043
:10342000134801680122114301604168114A1140AB
:1034300041600168104A1140016001680122920454
:103440009143016041683F22120491434160C16A87
:1034500009090901C162016BFF22D4329143016362
:10346000416B4908490041630021816070470000B9
:10347000001002400CB8FF08FFFFF6FEF0B502682E
:103480001A4B0124A4071A4D984203D0A04201D040
:10349000A84203D17026B2434E683243154E164FF0
:1034A00098420AD0A04208D0A84206D0134CA042AD
:1034B00003D0B04201D0B84204D103242402A24375
:1034C000CC6822438024A2434C69224302608A686C
:1034D000C2620A688262984203D0B04201D0B84208
:1034E00001D10969016301214161F0BD002C014056
:1034F000000400400044014000480140002000401A
:1035000010B50123046A8B409C430462036A8A401D
:103510001343036210BD30B58468FF252D021B02E2
:103520001343AC430B432343836030BD8268702355
:103530009A430A4307210A4382607047F0B5026A42
:10354000520852000262056A436882697024A243ED
:1035500092080C6892001443022295438A68134E25
:103560002A43114DA84204D0B04202D0104FB842B5
:1035700006D10827BA43CF681743042297433A4637
:10358000A84204D0B04202D0094DA84206D103257A
:103590002D02AB434D691D438B692B43436084610E
:1035A000496841630262F0BD002C014000440140C3
:1035B0000048014070B5026A10239A430262046A0F
:1035C0004368826973252D02AA430D682D021543B5
:1035D000202294438A6812012243104CA04208D151
:1035E0001446CA688026B443120122434024A243F1
:1035F00005E00B4CA04202D00A4CA04208D10324A3
:10360000A402A3434C69A4001C438B699B00234381
:103610004360856149688163026270BD002C01408E
:10362000004401400048014070B5026AFF230133A5
:103630009A430262046A4368C2697025AA439208E9
:103640000D68920015430122520294438A681202C7
:103650002243104CA04207D1C414A243CC682402D8
:1036600022430615B24305E00B4CA04202D00B4C9E
:10367000A04208D103242403A3434C6924011C4322
:103680008B691B0123434360C5614968C1630262C2
:1036900070BD0000002C0140004401400048014082
:1036A00030B5026A01231B039A430262056A42682D
:1036B000C36973242402A3430C6824021C4301231E
:1036C0005B039D438B681B032B430A4DA84205D027
:1036D000094DA84202D0094DA84205D10125AD03EC
:1036E000AA434D69AD012A434260C461496801643F
:1036F000036230BD002C01400044014000480140FD
:1037000070B50468A26870239A434B681343DB08C2
:103710000A68DB001A43A2604A6813071B0F0ED128
:103720001211130000F015FF080B0B0B0B0C1D23DF
:10373000050B0B698A68C9680068FFF7ECFE70BD6D
:103740000268136A146A6408640014620468A26957
:103750000969F025AA4309011143A16100680362C8
:1037600070BD0A698968006800F007F870BD0A69D1
:103770008968006800F038F870BD30B5036A046AE3
:103780006408640004628469F025AC43120122439A
:103790000A24A3430B438261036230BD70B5046AFF
:1037A0006408640004628469056A0D4EB04206D064
:1037B0000126B607B04202D00A4EB04202D1A40898
:1037C000A40000E001221443F02294431A07120ED1
:1037D0000A2322439D43194029438261016270BD3F
:1037E000002C01400004004030B5036A1024A343BC
:1037F00003628469036A0F252D031203AC4322433D
:10380000A024A343090119438261016230BD70B550
:10381000046A1025AC4304628569046A03263602F3
:10382000B54312022A430F252D031B071B0CAA4385
:103830001343A02209019443114021438361016293
:1038400070BDFF30FF3002308069002806D0FF30A5
:103850000021FF3002304161084670470220704766
:1038600070B5C21DFF32FA321546946900F058FB5C
:10387000E11DFF31FA31C860A869002808D0486806
:10388000E969CA688321890061189047002070BDEA
:10389000022070BD70B504460025812100F098FA21
:1038A0000121204600F094FA8221204600F090FA8F
:1038B000FF34FF340234A069002807D0E069406873
:1038C0008047A06900F0F1FD0020A061284670BD8E
:1038D000FF3010B5FF301A300AC8002B0AD0CC1DBB
:1038E000FF34FA342078FF2804D09B686278984728
:1038F000FF202070002010BD0A2101800048704781
:103900005C0000204321018000487047AC0000208B
:103910004321018000487047680000204321018056
:1039200000487047F0000020F8B50446007C0126EE
:1039300000257602002830D0402302228121204633
:1039400000F05AFB402302220121204600F054FBE4
:10395000082303228221204600F04EFB87208000AE
:1039600000F0A4FDE11DFF31FA31886100281CD070
:103970000746C86900688047FF370020FF370237D5
:103980007861B861207C7A68002810D0402301213A
:10399000204600F047FB2846F8BD3346022281212D
:1039A000204600F029FB3346CDE70125F3E73346F7
:1039B000EDE710B54321C9000958002913D0027C56
:1039C000002A09D0FF31FF3102314A68402301212A
:1039D00000F028FB002010BDFF31FF310231012330
:1039E0005B024A68F3E7022010BD0246022000296C
:1039F00004D0FF32FF3202320020D1617047FF3025
:103A0000FF3002308069FF30FF300230416000201B
:103A10007047FF30FF3002308069FF30FF300230E6
:103A2000026181600020704770B50C46C11D0546DB
:103A3000FF31FA31207860228E69024022D0202A9C
:103A400028D1E288002A16D0000607D5C969607817
:103A50008B6831469847E288314618E0F01DFF3008
:103A60006178FA300170A1794170E28831462846C8
:103A700000F050F80EE0C96960788B68002221469A
:103A8000984707E060780A2804D1034901222846B4
:103A900000F05CF8002070BD5800002010B54321F4
:103AA000C9000958002911D0FF31FF3102314A699C
:103AB000002A01D0012010BD01224A610A8A93B276
:103AC0008A68812100F06CFB002010BD022010BD2F
:103AD00010B585229200125852689047002010BD00
:103AE000134610B50A46002100F09CFA002010BDD4
:103AF000134610B50A46002100F052FB002010BD0D
:103B000010B50446802100F01DFB0021204600F086
:103B100019FB10BD10B5FF230324F5331C50C31D42
:103B2000F9339A60DA6013460A46002100F07AFA07
:103B3000002010BD10B5FF210522F5310A500023E9
:103B40001A46194600F06EFA002010BD10B5FF238A
:103B50000224F5331C5082611346C2610A460021DB
:103B600000F01EFB002010BD10B5FF210422F5312E
:103B70000A5000231A46194600F012FB002010BD1F
:103B800010B50A46024903A000F0D4F8004810BD61
:103B90008C0A002043444320436F6E66696700002F
:103BA00012200880004870474400002010B50A46E3
:103BB000024903A000F0BEF8004810BD8C0A0020A6
:103BC00043444320496E746572666163650000007A
:103BD00004200880004870474000002010B50A46C5
:103BE000024903A000F0A6F8004810BD8C0A00208E
:103BF00053544D6963726F656C656374726F6E695F
:103C00006373000010B50A46024903A000F092F861
:103C1000004810BD8C0A002053544D3332205669A1
:103C2000727475616C20436F6D506F727400000088
:103C300010B50A46024903A000F07CF8004810BD08
:103C40008C0A00203030303030303030303031416C
:103C500000000000F8B50D4604464988FF300A0A06
:103C6000FF300230130000F074FC084905091649C2
:103C7000493E46490069237C02682AE0217C0226ED
:103C80004069002905D0C16A6846884701464670E8
:103C900040E0816AF8E7C9B20B0000F05AFC060464
:103CA000080F13171E2F0069227C436802E0006989
:103CB000227C836869461046984712E00069227C9E
:103CC000C368F7E70069227C0369F3E70069237C96
:103CD000426969461846904703E00069227C83697F
:103CE000E8E7014616E0217C002907D14069416BD5
:103CF00068468847F5E7217C002904D029462046FC
:103D0000FFF7FEFEF8BD4069016B68468847072251
:103D100001464270684600880028F3D0EA88002AED
:103D2000F0D0824200D90246684602802046FFF762
:103D30000DFFF8BD70B5002300281CD004460025F7
:103D400002E06D1CEDB2641C2678002EF9D16C00E7
:103D5000A41C1480CC5403225B1CCA5400245B1C9A
:103D600006E0CA545B1CDAB28C54521CD3B2401C1D
:103D70000278002AF5D170BD10B5002813D0C31DFC
:103D8000FF33FA335C69002C01D000245C61002908
:103D900000D01961FF210123FD310B54027000F0A6
:103DA000C7F8002010BD022010BD10B5FF30FF3055
:103DB00002300024006AFDF745FC002806D00128E7
:103DC00001D0022801D0022400E00124204610BDC9
:103DD00010B5FF30FF3002300024006AFDF77EFB93
:103DE000002806D0012801D0022801D0022400E0DA
:103DF0000124204610BDFEB50446FF30E51DE1302C
:103E0000FF35FA3513460190002908D068694269E8
:103E1000002A49D00198007F032843D044E0264679
:103E2000FF3681362046716F1430022934D1C268C2
:103E300081680092914207D9891A81608AB2194635
:103E40002046FFF755FE13E0406811460746FCF791
:103E50006DF9002913D10098874210D3B06F8742C3
:103E60000DD2002211462046FFF742FE0020B06727
:103E700000231A461946204600F0D4F80CE0686981
:103E8000C168002905D00198007F032801D1204690
:103E900088472046FFF74EFE2878012804D10020ED
:103EA000287001E0204690470020FEBD70B5054611
:103EB000FF35E1352B46203316460446002907D04E
:103EC00058698269002A29D0287F032824D025E058
:103ED000FF21F531E01D0959FD3003291ED182680B
:103EE000C1688A420BD9511A8160C068814200D3EF
:103EF00001468AB231462046FFF7F2FD0EE05869CE
:103F00000169002904D0287F032801D12046884771
:103F10002046FFF729FE01E020469047002070BDB3
:103F2000FF3010B5FF300230006AFDF7E5FB10BD31
:103F300010B52049C41DC861FF341F49FA341F4819
:103F400021620860022208208A60486003200A611A
:103F5000C86000208861C86108620846FDF7F0FE6D
:103F6000002804D0FF21253115A000F0ABFA002273
:103F700018231146206AFDF779FA58230022802180
:103F8000206AFDF773FAC02300228121206AFDF721
:103F90006DFAFF23113300220121206AFDF766FA32
:103FA000FF23013300228221206AFDF75FFA0020FF
:103FB00010BD00006C0A00206C080020005C00406E
:103FC0002E2E2F5372632F757362645F636F6E665C
:103FD0002E630000FF30CA09FF3049060230490E47
:103FE0001C23006A59430818002A01D0203001E040
:103FF000FF300130807A704770B5FF301D46FF30CA
:10400000023013460024006A2A46FDF77FFB002891
:1040100006D0012801D0022801D0022400E00124AA
:10402000204670BD10B5FF30FF3002300024006A1A
:10403000FDF7BEFC002806D0012801D0022801D0DF
:10404000022400E00124204610BD70B50022044681
:1040500040231146FFF7D0FF4025FF2011300551C6
:104060002B46002280212046FFF7C6FFFF200121BA
:10407000FD3025620155E01DFF30FA3081690029CD
:1040800004D040692179426820469047002070BDE5
:10409000FF30E130417F01770020704710B5FF21EC
:1040A000FD31095C032906D1852189000958C969B8
:1040B000002900D08847002010BD017400207047FF
:1040C00010B5FF30FF3002300024006AFDF7CCFE4F
:1040D000002806D0012801D0022801D0022400E0E7
:1040E0000124204610BD70B504464120C0002018B0
:1040F000054600F068F82146FF318131012208466B
:1041000080304A67C2898A67007AC106C90E0AD020
:1041100001290DD0022910D0C109C901204600F0A3
:1041200011F8002070BD2946204600F0B6F8F8E7E7
:104130002946204600F09CF9F3E72946204600F086
:1041400022F9EEE710B5FF30FF3002300024006A9C
:10415000FDF7AEFC002806D0012801D0022801D0CE
:10416000022400E00124204610BD10B5FF30FF30CE
:1041700002300024006AFDF798FE002806D00128CE
:1041800001D0022801D0022400E00124204610BD05
:10419000FF30E130017F4177042101770020704733
:1041A00010B5FF30FF3002300024006AFDF7CAFC72
:1041B000002806D0012801D0022801D0022400E006
:1041C0000124204610BD0A7802704A784270CB78EC
:1041D0008A781B02D21842804B790A791B02D218C6
:1041E00082808A79C97909025118C18070470246D4
:1041F0000020002904D0FF32FF32023251617047A3
:104200000220704710B58522920012580224002A1D
:1042100004D012689047002800D10024204610BD29
:1042200070B50E468978194D04462970012904D9C4
:1042300031462046FFF764FC70BD2046FF30E13078
:10424000027F022A15D0032AF2D1002917D0606814
:1042500088420AD0C1B22046FFF73AFC2978616053
:104260002046FFF7CFFF0228E2D02046FFF77CFC74
:1042700070BD0029F9D0032261600277F0E70222C5
:10428000027720466160FFF723FCEEE7560000202E
:1042900010B5FFF76AFF002010BDF8B500220092AC
:1042A000C61DFF364C781746FA3632460225203AAC
:1042B000230000F04EF90A3C55414F410906412BBD
:1042C0002841FFF7C7FC5CE004468888002818D125
:1042D000C888002815D1887817464606107F760EC4
:1042E00003280ED0BE7731462046FFF7E9FE204670
:1042F000FFF73AFC002E01D03D7742E001203877ED
:104300003FE0204618E0FFF78BFF3AE0CB88012B17
:1043100012D1127F022A02D0032A0DD104E0012219
:1043200001460831876012E00122011D0FE0127F73
:10433000022A04D0032A02D0FFF7E2FB21E0C76083
:104340007168002900D0C560014602220C31FFF7D8
:10435000FDFB16E004464888012812D1706009E090
:104360000446107F022801D00328CAD148880128BA
:1043700007D1776070698268204690472046FFF732
:10438000F3FB0098F8BDF8B504460D462878E61D05
:104390004006FF3600270979800FFA36012809D038
:1043A0006A7830462038002A38D0012A1ED0032AE5
:1043B0003DD106E07069294682682046904700207A
:1043C000F8BD007F022817D003282CD16888002868
:1043D00006D1002904D0802902D02046FFF7B2FE82
:1043E0007069294682682046904713E0007F0228C2
:1043F00002D0032817D104E0002918D080291AD14F
:1044000015E06888002812D1480603D02046FFF73F
:10441000CCFCE5E72046FFF7A7FB08E0007F022879
:1044200007D003280BD029462046FFF769FB384602
:10443000F8BD4806FBD02046FFF784FEF7E7C80921
:1044400004D04806400D0519143504E04806400D17
:104450000519FF3505352046FFF7BCFD002800D0C3
:1044600001202860022229462046FFF76FFBDEE785
:1044700070B50446FF30E130007F0D4603280FD1B0
:10448000287901280CD885208000005982682046B0
:104490009047E888002806D12046FFF765FB02E038
:1044A0002046FFF72DFB002070BD70470048704785
:1044B0004C06002010B50248FDF7BCFB10BD000003
:1044C0006C080020FEE700000FB41CB50246002077
:1044D00007AC00290BD0491E01910092064B6A4699
:1044E0002146069800F00CF9009A002111701CBCBE
:1044F00008BC04B018470000394E00080FB410B5CE
:1045000004A9074B02AA039800F0FAF8044602A98E
:10451000002000F09CFC204610BC08BC04B01847EA
:104520004F4E00082021020C01D010211046020A33
:1045300001D010460839020901D01046091F82082F
:1045400001D01046891E420801D0881E7047081A03
:10455000704730B47446641E2578641CAB4200D2A8
:104560001D46635D5B00E31830BC184702E008C8D5
:10457000121F08C1002AFAD170477047002001E0DD
:1045800001C1121F002AFBD170470000F0B51FB413
:1045900086B00998089A030D0021024314D05148AF
:1045A000514A1818504305141198012810981AD030
:1045B000281A401C00264D4F4D4900960191049049
:1045C000002812DA444211E01198012449A301287D
:1045D00001D11098C1430698119A84600360C260AB
:1045E00041600BB0F0BD4042E4E7044621050020E5
:1045F0003F4A001C51410391029012E0E00707D0AE
:1046000032463B4601990098FBF7E4FF0191009088
:1046100032463B4610461946FBF7DCFF06460F467E
:104620006410002CEAD10498039B0028029A09998F
:10463000089806DAFBF7CEFF019B009AFBF7CAFF4A
:1046400005E0FCF72FF8019B009AFCF72BF80446D5
:104650000E460022284BFCF7BDF803D80020C043CB
:10466000014607E00022254B20463146FBF700FFBC
:10467000FCF790F8102409E0002C0ADB0A22002342
:10468000FBF785FE079B30321A55641E02460A432B
:10469000F2D11122641C079B121B1C19119B012BC8
:1046A00003D0012308430ED10AE0084304D01120AF
:1046B00010900020119077E71098151A6D1E0BE0EE
:1046C0001098824202DD00236D1C03E0824201DA71
:1046D00000236D1E002BEED0069811998260C160F8
:1046E00030C07EE701FCFFFF104D000000001440C9
:1046F0000000F03F300000000000F0430000E03F09
:10470000FFB597B00646002518E2252877D100248A
:104710002746FD49049400E00443761C32780120CA
:10472000203A90400842F7D130782A280ED0022251
:10473000307801463039092916D804990A2359439B
:10474000303940181443761C0490F1E7189802C8D9
:1047500004911890002904DA0120400304434842E0
:10476000049002200443761C30782E2814D10420B3
:1047700004437078761C2A2809D11898761C80C8C2
:10478000189009E00A214F43303FC719761C307852
:10479000014630390929F5D930786C2810D006DC6B
:1047A0004C281AD068280ED06A2817D104E0742843
:1047B00013D07A2812D110E00120400504430CE008
:1047C0000121090501E0032109050C4371788142AB
:1047D00003D1012000052418761C761C3078119036
:1047E00066280BD013DC58287DD009DC00287BD04C
:1047F0004528F6D04628F4D047281AD1A5E118E07C
:10480000632835D0642870D0652812D19DE17028C6
:104810006CD008DC6728F1D069287BD06E280DD0D9
:104820006F2806D1BAE073282ED0752871D0782869
:1048300059D01A9A199990476D1C7EE16002400F79
:10484000022809D003280DD00428189801680DD03B
:104850000D60001D189070E11898EA1701680D604E
:104860004A60F6E7189801680D80F2E70D70F0E7EE
:1048700018986A4601781172001D18900020507235
:1048800002A80090012005E0189802C818900020A6
:104890000091C04361070DD5002101E00199491C39
:1048A0000191B94212DA8142F8DB009A515C002989
:1048B000F4D10BE0002101E00199491C01918142F2
:1048C000FADB019A0099895C0029F5D101990498D5
:1048D0001A9B471A21463846199A00F097FA01990F
:1048E000401945180BE04FE02CE113E04EE0009832
:1048F00000990078491C00911A9A199990470198DB
:10490000401E0190401CF2D1214638461A9B199A4C
:1049100010E137E00A200021009001916002410F70
:10492000022907D0189A01CA1892C217944603297F
:1049300008D00AE01898C01DC108C90005C918911F
:10494000944607E000B2C2179446042902D140B24F
:10495000C1178C4600226146944506DA0A460021BA
:10496000404291418C462D2102E0210504D52B21A6
:104970006A461173012103E0E10701D02021F7E726
:10498000029155E00A200AE0102008E01020009073
:104990000021042004430191082703E0082000219E
:1049A000019100906002410F022907D0189A01CAB4
:1049B000189200229446032908D008E01898C01DD8
:1049C000C108C90005C91891944603E080B20429C2
:1049D00000D1C0B200210291210729D51199702977
:1049E00006D0009A1021019B4A401A4305D00EE0E0
:1049F00040216A461173012108E06146014306D057
:104A000030216A4611731199517302210291009A63
:104A10000821019B4A401A430AD16146014301D152
:104A2000610705D530216A46117301217F1E02916D
:104A30001199582904D035A10E910DA90D910DE0C1
:104A400037A1F9E76146019B009AFBF7A0FC0E9B9A
:104A50008C469B5C0D9A521E0D9213706146014369
:104A6000F0D10D9805A9081A20300190600703D5F0
:104A700001200004844300E001270198874201DD02
:104A8000381A00E000200199009041180298091896
:104A90000498401A0490E00306D421461A9B199A00
:104AA000049800F0B3F94519002706E003A81A9A04
:104AB000C05D199990476D1C7F1C02988742F5DBF9
:104AC000E0030CD521461A9B199A049800F09EF930
:104AD000451904E01A9A3020199990476D1C0099E5
:104AE000481E00900029F5DC08E00D980D9900782B
:104AF000491C0D911A9A199990476D1C0199481EED
:104B000001900029F1DC63E10928010030313233E2
:104B100034353637383961626364656600000000F9
:104B200030313233343536373839414243444546E3
:104B30000000000000F05AF94519761C3078002872
:104B400000D0E2E528461BB0F0BD600700D4062780
:104B50001898C01DC108C90048680A680831C30F09
:104B6000DB071891190001D09CA108E0210501D5AF
:104B70009BA104E0E10701D09AA100E09AA14300C3
:104B800011985B08109165280CD006DC452809D0E7
:104B900046281DD0472841D141E0662818D0672813
:104BA0003CD13CE00021112F01DB112000E0781CFA
:104BB0000191009008A911A8FFF7E8FC139905914D
:104BC0000021119A15927F1C12980197009150E0D4
:104BD0000120C00703900120019008A9009711A8A7
:104BE000FFF7D4FC139A149905920022119B0092AE
:104BF00012981593059A0192002901D0104602E0FF
:104C0000791C40180190381A01D5019804E04042FF
:104C1000401E0090781C0190C01B029043E0012FC1
:104C200000DA01270021112F01DD112000E03846B4
:104C30000191009008A911A8FFF7A8FC139905910C
:104C4000119A0021129815920091019721070CD416
:104C50000599B94201DB019900E00191012904DDC8
:104C6000159A491E515C302906D0B84201DA011D5F
:104C700005DA0121029115E00199491EEDE70028AE
:104C800005DC0099411800910199091A03E0019A85
:104C9000411C914200DD01910099401A401C029094
:104CA0000120C0070390200706D402990198814291
:104CB00002DB0020C043029000206946C87707AF9E
:104CC000012103980337C907884224D0022011909C
:104CD0002B201290039800280CDA404203902D20DC
:104CE000129007E00A210398FBF720FA30317F1E6B
:104CF000039039701199481E11900029F2DC039835
:104D00000028EFD1791E12980870307820210840D1
:104D10004530BF1E387006A8C01BC01D03901098F8
:104D20000078002800D00120019941180298C0178E
:104D30000918039809180498401A401E0490E003CB
:104D400006D421461A9B199A049800F05FF8451979
:104D500010980078002803D01A9A199990476D1C72
:104D6000E00324D521461A9B199A049800F04EF8C6
:104D700045191CE00098002807DB00990598884237
:104D800003DD1598405C199901E0199930201A9AB1
:104D9000904700986D1C401C00900298401E0290A5
:104DA000002804D11A9A2E20199990476D1C019958
:104DB000481E01900029DDDC05E038781A9A7F1C36
:104DC000199990476D1C0399481E03900029F4DC43
:104DD00021461A9B199A0498ACE600002D000000A9
:104DE0002B0000002000000000000000F8B5044681
:104DF00000251E461746880404D405E039462020C5
:104E0000B0476D1C641EF9D52846F8BDFFB50446B1
:104E1000002581B01E46C80301D5302700E02027B9
:104E2000880404D505E038460399B0476D1C641E1C
:104E3000F9D5284605B0F0BD4A68002A06D00A68B0
:104E4000531C0B6010704868401E486070470A6829
:104E5000531C0B6010707047A8B0FCF7B5FAFEF752
:104E60008DFA69484269012149040A434261426955
:104E70000A4000924169012211434161406910409A
:104E80000022009011460920FCF7ECFA0920FCF7FB
:104E9000DFFAFDF719FFFDF789FFFDF7DDFFFEF7EC
:104EA00065F8FDF751FFFEF721F87D200001FCF7C2
:104EB000D0F95648FCF7FEF85448FBF7B3FE00283B
:104EC00003D00B2152A0FBF765FE6420FCF7C1F96B
:104ED0004E488C30FDF778FC4C4800218C30FDF7B3
:104EE000A1FD4A484C30FDF76FFC484800214C308A
:104EF000FDF702FE4548CC30FDF766FC4348002133
:104F0000CC30FDF7F9FD4548FDF75EFC0021434834
:104F1000FDF798FE962242493C48FCF77BF81721A2
:104F200040A067E08200401CA1500328FADB3C4906
:104F3000002042008D5A069B52185B190693558833
:104F4000079BC01C5B1907939288089B9A180892CC
:104F50009628EEDB10463221FBF7E8F80890374838
:104F60003749408B48430899FBF7E0F8074600258E
:104F7000AE00A0593221FBF7D9F8A0517843A051D7
:104F80003049FBF7D3F86D1CA051022DF0DB234C08
:104F90002568E86AFBF7CCF90646686BFBF7C8F9A9
:104FA0003146FBF787F92849FBF747F906462046C3
:104FB00080380068456BFDF7EFF82468A16A491C4A
:104FC000FBF7B4F8E16A491CFBF7B0F80446304639
:104FD000FBF7C9F9009701950294059104901B49CC
:104FE00009A8079B069AFFF789FA09A8FBF7C5F8F5
:104FF00081B209A8FBF7CEFDC820FCF72AF90020F2
:10500000014606AC8EE70000001002409802002026
:10501000414443204572726F72210A00A4030020AC
:105020006C0100200A547970652068206F72203F5F
:1050300020666F722068656C700D0A00A0F7FF1F74
:10504000E40C0000FF0F00000000C842B853000845
:10505000F8B5924D0078924F2C68712816D07728B9
:105060003DD065284ED072287ED064287DD0662839
:105070007CD03F287BD06828FCD00D2801D00A289E
:1050800003D1022187A0FBF785FDF8BDE06AFBF79D
:105090004FF97F21C905FBF777F80646606BFBF7F0
:1050A00047F97F21C905FBF76FF83146FBF702F995
:1050B0003946FBF7C2F8FBF742F986B2E06A642191
:1050C000FBF734F80004000C00D10120616B0818D4
:1050D0006063632ED9D92868C16A4163F8BDE06A6C
:1050E000606BE06A6421FBF721F80004000C00D13A
:1050F0000120616B814201D2002001E0616B081A3E
:105100006063F8BDE06A85B22846FBF711F97F219C
:10511000C905FBF739F80646606BFBF709F97F21F3
:10512000C905FBF731F83146FBF7C4F83946FBF700
:1051300084F8FBF704F980B2022D01D2012500E0CA
:105140006D08FBF7F5F83946FBF7B4F80646284634
:10515000FBF7EEF83146FBF770F8FBF7F0F84F4934
:1051600060630020401C03E007E03DE05EE092E069
:10517000C0B26428F6D3086856E0E06A85B22846D3
:10518000FBF7D6F87F21C905FAF7FEFF0646606BEC
:10519000FBF7CEF87F21C905FAF7F6FF3146FBF79A
:1051A00089F83946FBF749F8FBF7C9F83E4980B260
:1051B0008D4201D93D4D01E069040D0CFBF7B8F8B3
:1051C0003946FBF777F806462846FBF7B1F8314633
:1051D000FBF733F8FBF7B3F8304960630020401C5D
:1051E000C0B26428FBD3C6E7E06A85B22846FBF765
:1051F0009FF87F21C905FAF7C7FF0646606BFBF7EA
:1052000097F87F21C905FAF7BFFF3146FBF752F83F
:105210003946FBF712F8FBF792F880B2022D01D263
:10522000012525E06D1E22E0C562F8BDE06A85B269
:105230002846FBF77DF87F21C905FAF7A5FF06464A
:10524000606BFBF775F87F21C905FAF79DFF3146C2
:10525000FBF730F83946FAF7F0FFFBF770F813491F
:1052600080B2491E8D4201D94D1C01E06D1CADB2CA
:10527000FBF75EF83946FBF71DF806462846FBF7B4
:1052800057F83146FAF7D9FFFBF759F801460348BA
:1052900061630068C8E700F00BF8F8BDA4030020C4
:1052A0000000C8420D0A0000A47F0000FFFF0000BC
:1052B00000B5B5B0054ACF216846FFF705F9CF2103
:1052C0006846FBF767FC35B000BD0000E8520008F7
:1052D00000000000000000000102030406070809A6
:1052E00000000000010203040D0A0A0A68206F7220
:1052F000203F202D3E2073686F77207468697320EB
:1053000068656C700D0A712F77202D3E20696E63E1
:105310002F6465632070776D2064757479206379DC
:10532000636C6520627920313025250D0A652F7266
:10533000202D3E20696E632F6465632070776D2099
:105340006672657120726F7567680D0A642F66203A
:105350002D3E20696E632F6465632070776D206633
:1053600072657120736D6F6F74680D0A303432206E
:105370005465726D696E616C204C6162202D205401
:105380006F6D61732053766974696C2C204465706D
:1053900074206F66204D6561737572656D656E74FE
:1053A0002C2046454C2C2043545520696E205072C9
:1053B000616775650D0A0A00414443205041313A46
:1053C000205F2534646D56205041323A205F2534E9
:1053D000646D562C20566464613A205F2534646DF8
:1053E000562C2020204672657120696E2050413075
:1053F0003A205F253864487A2C2050574D206F752D
:1054000074205041343A205F2564487A2C2044753A
:1054100074793A205F25332E31662525200D000052
:1054200040540008000000206C010000240900081E
:10543000FC5400086C010020240F00007C4500088B
:105440001153127A13510B1B084D041A49041A7197
:1054500004C113A13B1B08D1041ADD0413053C1B36
:105460000831041A810C1AAD04170403090412014F
:10547000140202021640830440576602010203012F
:10548000130A0632022A400F1C0902431B1125C0D1
:105490003209041B01020B13052416100105240117
:1054A00010090104240202052406170107058203DE
:1054B000081C10090451320A1D07050102432C077C
:1054C0000581070938442A40072A8107112B09075B
:1054D000440A2204440A16FF441329391408953853
:1054E0001408293A42081AD10C1A43041A6104C15B
:0C54F0001A11281A05041A1D041AF91CD0
:04000005080000C12E
:00000001FF
