:020000040800F2
:10000000D8160020D500000889290008B527000867
:1000100000000000000000000000000000000000E0
:10002000000000000000000000000000FF000008C9
:10003000000000000000000001010008512D000830
:100040000501000805010008050100080501000878
:100050000501000805010008050100080501000868
:1000600005010008DD05000805010008050100087C
:100070000501000805010008050100080501000848
:100080000501000800000000000000000501000854
:100090000000000005010008050100080501000836
:1000A0000000000005010008050100080501000826
:1000B0000501000800000000050100088D3D000852
:1000C0000348854600F080F9004800475941000880
:1000D000D81600200C4880F308880C480168090EE7
:1000E0000B4A914205D10B480B4901600B480C4962
:1000F00001600C4880470C480047FEE7FEE7FEE73A
:10010000FEE7FEE7FEE70000D8160020040000002E
:100110001F00000018100240010000000000014014
:1001200000000000C12D0008C100000830B50B46DA
:10013000014600202022012409E00D46D5409D42C1
:1001400005D31D469540491B254695404019154647
:10015000521E002DF1DC30BD421C0178401C0029EC
:10016000FBD1801A7047F8B502464A40D40F4200CE
:100170004B0052085B089A4202D2024608461146DA
:100180004A0023D0C30D4A00DDB2120EAD1A202D55
:1001900035DA49020126490AF6058A19002C00D0F1
:1001A000524220214F1B1146B9402A411018C20D5E
:1001B0009A4221D0002C17D0012D08DCDA05801AD4
:1001C000D20F8019D207DBB200F0C4F8F8BDDA050F
:1001D000801A012340001B06C01880185A4280185C
:1001E000CA0F1043490007E04908C2071143DA0566
:1001F000801A80194008801800F0A4F8F8BD61004A
:100200000122511A001BF7E70122D2075140AAE749
:100210000122D2075040A6E7024670B54A40D30FEC
:10022000DB0740002DD04A002AD0010E140E000238
:1002300012020919400A520A8418E501044654437F
:10024000000A120A2E045043A4194219200CC54377
:10025000AA18120C0125AD03521C521912047F3941
:10026000240400D0521C104301D44000491EC2B2E5
:100270000C06C0092018401C4008802A02D003E068
:10028000002070BD40084000002900DA002018431B
:1002900070BD70B502464A40D50F40004A00ED07D8
:1002A00040085208002814D0002A12D0C40DD30DE3
:1002B00041020120C0055202490A520AE41A0918F3
:1002C00012187D34914201D3641C00E04900002CD7
:1002D00001DA002070BD0023914201D3891A034343
:1002E000400849000028F7D100290AD0914202D1E4
:1002F0000121C90705E0914201D2012101E001215C
:10030000C943E005C018401900F01CF870BD10B5D5
:1003100000229623114600F01DF810BD4100400256
:100320000122400AD205090E80187F2901DA002037
:100330007047962903DC9622511AC84070479639B7
:1003400088407047002904DA401C490001D1400868
:100350004000704770B40024050C05D1102400043F
:1003600002D1002921D01124050E01D10002083448
:10037000050F01D10001241D850F01D18000A41CAF
:10038000002801DB4000641C002908D020252E1B1A
:100390000D46F540A14000D0012129430843010644
:1003A0001B1B000ADB1D02D5002070BC7047DB055B
:1003B000181880180029F8DA401C4900F5D170BCE3
:1003C0004008400070470000064C0125064E05E03D
:1003D000E36807CC2B430C3C98471034B442F7D366
:1003E000FFF772FE3C4600085C46000870B58C18AA
:1003F0000578401C6B075B0F01D10378401C2A1164
:1004000006D10278401C03E006780E70401C491C9F
:100410005B1EF9D12B0705D40023521E0DD40B709F
:10042000491CFAE70378401CCB1A921C03E01D78A4
:100430000D70491C5B1C521EF9D5A142D8D3002077
:1004400070BD10B50146406A426C50231A420AD171
:10045000416C01225202114341640168CA681205CD
:10046000920F05D020E0C06B026B0846904710BD8C
:10047000026A002A18D10A68120715D58A6853073C
:100480000122002B09DB4B680C24A3434B60416C19
:10049000130299431143416406E0416C2023194340
:1004A0004164816C1143816400F090F910BD10B576
:1004B000406A416C402211434164816C0422114323
:1004C000816400F085F910BD10B5406A00F07FF935
:1004D00010BD0000F8B50446002000902068816837
:1004E0008907890F012905D10168C9072CD1C16885
:1004F000090429D48168154A1026114001250029D4
:1005000015D1816829438160124811490068FFF7BD
:100510000DFE00E0401E00900028FBD100F084FC9E
:1005200007460CE000F080FCC01B022807D9606C75
:1005300030436064A06C2843A0640120F8BD2068AB
:100540000068C043C007EDD10020F8BD170000804F
:1005500040420F000000002000207047002070473C
:1005600010B5074C05480022211DA06002F01DFFB8
:100570002146A06802F00FFF002010BD740A002081
:100580001800002070B5074D04460146A86802F027
:1005900002FFA86802F0D9FE204603F09BFE00206F
:1005A00070BD00001800002010B50B4C0A46034631
:1005B0004321A068C9000958FF31FF310231496960
:1005C000002901D0012010BD194602F0EEFEA068FE
:1005D00002F030FF10BD00001800002010B50248E6
:1005E00000F03AFA10BD00003C0A002010B5046883
:1005F00063604368102B036803D099600068C26091
:1006000010BD9A600068C16010BDF8B5054604468B
:10061000403528780026012808D00120287020685D
:1006200081688907890F012908D101E00220F8BDFE
:100630000168C9072AD1C168090427D4616CFF2267
:100640000132914302221143616481689207114390
:10065000816000F0E9FB07460EE000F0E5FBC01BFF
:10066000022809D9606C0221884310210843606484
:10067000002028700120F8BD206880680028ECDB8D
:10068000606C80088000401C606404E0606C202185
:10069000084360640126002028703046F8BD000041
:1006A000F8B500250446403400952278012A3BD055
:1006B0000122227003689E68760776D43F4F4E6809
:1006C000BE4254D09E6A0F78BA4016439E62012300
:1006D000826B1B079A421FD0012A1DD0022A1BD011
:1006E000032A19D0042A17D0052A15D0062A13D0B8
:1006F000072A11D002688B6856697607760FB342D5
:100700000AD05369DB08DB005361006842690B7A49
:100710005B075B0F1A4342610868102806D0112856
:1007200004D0122802D045E00220F8BD244A936884
:10073000102809D011280AD0012000060343936035
:100740000868102806D035E00120C005F6E7012032
:100750008005F3E71C481B490068FFF7E7FC0A2106
:10076000484300E0401E00900028FBD122E0986A38
:100770000E78B240904398620868102803D0112880
:1007800001D0122816D10E498A68102807D01128E6
:1007900008D00120000682438A600BE005E00120BA
:1007A000C005F8E701208005F5E7416C20221143E0
:1007B00041640125002020702846F8BD011000008A
:1007C0000027014040420F000000002070477047A2
:1007D00070470000F8B500250446002803D0606C7F
:1007E000002802D008E00120F8BD0020A0644021CC
:1007F0000855204600F0A8F8606C1022104270D115
:100800002068816849076CD4616C13019943022305
:100810001943616481688907890F012905D101683D
:10082000C9070FD1C16809040CD4C1681826B143A7
:10083000A6683143C160206801696668890089083B
:10084000314301612068C1683D4E3140C160A069FB
:10085000E1698003C9030843216A4E033043666B94
:10086000012E02D00126360300E000263043E66860
:1008700030432669022E08D000263043266B7600CE
:100880003043666A012E02D00BE00426F5E700290A
:1008900028D0616C202631436164A16C012631436C
:1008A000A164A16A0E46FF3EC23E02D0E66A314311
:1008B00008432168CE680643CE600126A16B360747
:1008C000B14213D0012911D002290FD003290DD034
:1008D00004290BD0052909D0062907D0072905D0FE
:1008E00010E028E0012109040843DAE721684E6995
:1008F000F608F6004E6121684E69278F7F077F0F4B
:100900003E434E612168C9680E4E3140814207D195
:100910000020A064606C80088000401C606408E0D7
:10092000606C984310436064A06C01210843A0648C
:1009300001252846F8BD606C10436064F8E70000AC
:100940001902FEFFE7FF3F8370B5054600681649B0
:1009500086B0884225D11548826941150A438261D3
:100960008069002608400590062000900320019031
:10097000092069460296C00600F0B8F90C480D4CF3
:1009800041C48020266060604000A0608000E0607C
:100990002020666120610748083C00F04BF9EC63B9
:1009A000656206B070BD00000024014000100240E6
:1009B000080002403C0A0020F7B504460068002504
:1009C000806840073DD426464036307801280AD05A
:1009D00001273770E069012807D02046FFF77AFD2C
:1009E000050002D02EE00220FEBD606C16490840D2
:1009F000FF210131084360640020A0643070E16B86
:100A000012488862E16B1248C862E16B11480863C2
:100A100021681C2008602068416810221143416051
:100A20002068C1683943C1602168E06B4031029B96
:100A3000019A00F029F9206881680422114381603D
:100A400000E002252846FEBDFEF1FFFF430400083A
:100A5000C9040008AF040008F8B5044674480168EA
:100A6000734A734E724F08322068D3141C363037E5
:100A7000904201D1082210E0B04201D180220CE066
:100A8000B84201D11A4608E0694A4432904202D184
:100A90000122D20301E00122D20425461140203573
:100AA00000292ED00168C94309072AD40168082209
:100AB000914301605E4920680831884201D10820D5
:100AC00010E0B04201D180200CE0B84201D11846BC
:100AD00008E057494431884202D10120C00301E0B7
:100AE0000120C00452494860606B012108436063E3
:100AF0000420687000202870216B002901D0204656
:100B000088474B4802684A49206808310B158842DB
:100B100001D1042110E0B04201D140210CE0B842E3
:100B200001D1194608E042494431884202D10121ED
:100B3000890301E0012189040A422BD00168C943DD
:100B4000490727D40168890603D4026804218A432F
:100B50000260374920680831884201D1042010E042
:100B6000B04201D140200CE0B84201D1184608E063
:100B70002F494431884202D10120800301E0012045
:100B800080042B49486011206870E16A002901D077
:100B9000204688472648026825492068083188424F
:100BA00001D1022311E0B04201D120230DE0B8426F
:100BB00002D101235B0208E01D4B4433984202D16D
:100BC00001235B0301E001235B041A422ED002687B
:100BD000D24392072AD40268920603D40268022301
:100BE0009A4302602068884201D1022011E0B0429D
:100BF00001D120200DE0B84202D10120400208E0DE
:100C00000B494431884202D10120400301E0012018
:100C1000400407494860606B6063012068700020F1
:100C20002870A16A002901D020468847F8BD00003D
:100C300000000240F0B5002806D0014620314A7875
:100C40000024002A02D002E00120F0BD0C70022234
:100C50004A7005682B680B4A86681340426807692A
:100C60003243C6683E433243466932438669324363
:100C7000C66932431A432A60446301204870002049
:100C8000F0BD00000FC0FFFFF8B504462030057826
:100C9000012D1ED0012505700226467020680768C8
:100CA000AF4307602046FFF7A1FC2068016831438D
:100CB0000160206801680422114301602068016816
:100CC0000822114301602068016829430160002067
:100CD000F8BD0220F8BD31B500F0A6F8044600F0DA
:100CE000A3F80099001B8842F9D338BDF8B500235A
:100CF00089E001249C402A46A44622407ED04C68CC
:100D0000022C01D0122C0CD1DC08A40027183C6A5C
:100D10005D07ED0E0F26AE40B4430E69AE4026438C
:100D20003E6205685E000324B4400F79A543BF0707
:100D3000BF0FB7402F4307604D68012D05D0022D2E
:100D400003D0112D01D0122D0ED18568CF68A54397
:100D5000B7402F43876047686546AF430D79ED067E
:100D6000ED0F9D403D434560C568A5438C68B44088
:100D70002C43C4604C68E40044D5264CA569012688
:100D80003543A561A4699D0834400094224CAD0010
:100D90002F19BC689D072E0F0F25B540AC430925C0
:100DA000ED06A84201D100250AE01C4DA84201D160
:100DB000012505E01A4DA84201D1022500E00525D4
:100DC000B5402543BD60174C25684E689543F60332
:100DD00000D51543256065684E689543B60300D578
:100DE00015436560A5684E689543F60200D5154326
:100DF000A560E5684E689543B60200E002E000D5C4
:100E00001543E5605B1C0A681546DA4000D070E7C0
:100E1000F8BD00000010024000000140000400483E
:100E200000080048000401400148006870470000C5
:100E30000400002002480168491C0160704700005E
:100E40000400002010B5064801681022114301601B
:100E5000002000F007F800F017F8002010BD000097
:100E60000020024010B5044600F0F4FE7D21C900C8
:100E7000FFF75CF901F06CF900222146501E00F0EA
:100E800025F8002010BD000008B50948816901223D
:100E90001143816180691040002200901146501E6C
:100EA00000F014F80348016810221143016008BDE6
:100EB0000010024000000140C106C90E0120884018
:100EC000014908607047000000E100E010B501F042
:100ED0005DFD10BD10B50C0606D54906490E1C2453
:100EE00061430818283004E01C2461430818FF30CF
:100EF000093099B2002A06D001228272C180190CF1
:100F00000181002010BD002282728180F9E71C223D
:100F10004A43121810B5FF30FF300230926BC0699F
:100F200002F021FC10BD1C224A43121810B5FF30FC
:100F3000FF32FF30013202309269C06902F06EFC6C
:100F400010BD0000F0B54B065B0E1C461C2253433F
:100F5000CD091A18002D01D0283201E0FF320932E4
:100F600003461470C909FF335170E133197A01291E
:100F70003DD001211972947A4C49002C547838D014
:100F8000002C147805685FD0A4002E5B760404D58D
:100F90002E5B474F0E403E432E5314780568A40045
:100FA0002E5B760604D52E5B424F0E403E432E53F9
:100FB00014780568A4002E5B0E403D490E432E5365
:100FC000117806688D00715B384C30342140394C03
:100FD000403C21437153016810788200885A344D97
:100FE000F13D28402043885200201872F0BD0220B5
:100FF000F0BD002C11D014780568A4002E5B760695
:1010000004D52E5B0E402B490E432E5304681078F6
:101010008100605A254A303210E015780468AD002E
:10102000665B760404D5665B0E4021490E43665329
:10103000046810788100605A1D4AF13A10401D4A38
:10104000403A10436052CFE7A4002E5B760404D5EB
:101050002E5B174F0E403E432E5314780568A400B4
:101060002E5B760604D52E5B124F0E403E432E5368
:1010700014780568A4002E5B0E400E490E432E53D3
:10108000117806688D00715B094CF13C2140094CD8
:10109000403C21437153056810788100685A034A27
:1010A00030321040204368529EE700008F8F0000CE
:1010B00080C00000C0800000F0B54B06CA095B0E7E
:1010C000002A04D01C225A431218283204E01C22A1
:1010D0004A431218FF3209320024947013700346F9
:1010E000C909FF335170E133197A01291DD001215B
:1010F000197251781B4E00291B4C1178056816D0C7
:1011000089006F5A7F0605D56F5A3740164E403614
:1011100037436F52117800688A00815A114D30357B
:10112000294010256940202515E00220F0BD8900E6
:101130006F5A7F0404D56F5A37400C4E37436F52B5
:10114000117800688A00815A084DF13D2940012537
:101150002D0369406D0069402143815200201872BF
:10116000F0BD00008F8F00008080000080C0000074
:101170004906490E1C2251430818FF300130008CEB
:1011800080B27047F0B54D066D0E2E461C246543A7
:10119000CF092C18002F01D0283401E0FF34093486
:1011A0002670C90961700146FF31E260E131E370E8
:1011B0008C46097A01290DD0012261460A72E27833
:1011C0009A49002A08D0012A1FD0022A0ED0032AE9
:1011D00024D112E00220F0BD237802689D00535B09
:1011E0000B40FF33FF330233535317E02278036879
:1011F00092009D5A0D409D5210E0237802689B009A
:10120000D55A0D400321490206E0237802689B006D
:10121000D55A0D40012189026918D15223780668F8
:101220009D00725B82490A4082490A431A43725305
:10123000A27A002A59D02278076895007B5B7C4A05
:101240007D4E134033437B53E38850265D0803688B
:101250006D00F65AF6182378DF0001239B02FB1875
:10126000F552238950265D0803686D00F65AF6187A
:101270002378DF004B11FB18F55263780768002BC9
:1012800023787BD09B00FD5A6D0404D5FD5A6B4E2C
:1012900015403543FD52237807689B00FD5A6D06C3
:1012A00005D5FD5A634E154040363543FD5225782D
:1012B0000368AD005E5B1640604A16435E532278B9
:1012C000036895005A5B5A4E303632400A435A53EF
:1012D000026820788300D05A584CF13C20400843E3
:1012E000D052002061460872F0BD6278002AA288C0
:1012F00021D0530802685025AD5A5B00AD18227802
:10130000D60001229202B218AB52227803689200F2
:101310009D5A6D0606D59D5A454E3540454E403680
:1013200035439D52026820788300D05A404C3034B7
:101330002040202442E0530802685025AD5A5B004B
:10134000AD182278D6003E4AB218AB52026850233C
:101350009B5A3B4D9A182378AD1CDB005B19D518BE
:10136000E2683E2A0BD9D3021B0CD20601D15B1EC8
:101370009BB29A020123DB031A4307E020E0D30368
:101380001B0CD20701D05B1C9BB29A022A802278E8
:10139000036892009D5A6D0405D59D5A244E354030
:1013A000264E35439D52026820788300D05A234C44
:1013B000F13C2040012424036040640060408EE73B
:1013C0009B00FD5A6D0404D5FD5A1C4E1540354353
:1013D000FD52237807689B00FD5A6D0605D5FD5A1E
:1013E000144E154040363543FD5225780368AD0054
:1013F0005E5B16400F4A403216435E532278036804
:1014000095005A5B0D4EF13E324001263603724084
:10141000760072400A435A53036820788200985A33
:10142000034C30342040084398525AE78F8900001B
:101430008F8F0000808000008081000080C000004D
:1014400004040000F0B54906490E1C244C4324183E
:10145000FF340934636122610022A2610346627095
:10146000FF332170E133197A012908D00121197263
:101470006569E1688D4204D96D1A656103E0022057
:10148000F0BD29466261A57A002D05D06578002D52
:1014900019D0012D37D05AE005685026765B7619B1
:1014A0002578EF00324D7D1976193E293ED9CD02BF
:1014B0002D0CC90637D0A9020125ED03294300E010
:1014C000A902318043E005685026765B76192578BD
:1014D000EF00274D2D1F7D1976193E290AD9CD021F
:1014E0002D0CCF0601D16D1EADB2AD020127FF0359
:1014F0003D4306E0CD032D0CCF0701D06D1CADB2EE
:10150000AD02358009E005685026765B76192578AE
:10151000EF00174D2D1F7D1971536578002DBBD03D
:10152000012D0AD013E06D1EADB2C4E7CD032D0C22
:10153000C907C5D06D1CADB2C2E705685026765B01
:1015400076192578EF000A4D2D1F7D1971532178EA
:1015500000688C00015B074D294001252D0369407F
:101560006D006940044D294301531A720020F0BDFB
:10157000060400008FBF000080800000F0B5024626
:10158000FF32E132137A012B0BD001244F06CB0935
:101590007F0E1472002B06D01C237B431B182833AC
:1015A00006E00220F0BD1C234B431B18FF33093318
:1015B0009C701F70CE095E70012424031025114B0E
:1015C000002F0BD04906C90D002E10D00468605AB8
:1015D0000D4E304068401843605210E001680888A2
:1015E0000A4E3040604068401843088007E00568B4
:1015F000685A064E303E3040604018436852002022
:101600001072F0BD80800000BF8F0000BFBF0000DF
:10161000F0B506464806400E1C2141438D19EB6388
:101620000021AA6329640121283537466970FF37F4
:101630002870E137387A012806D03972EC68686979
:10164000A04203D9001B03E00220F0BD04460020A5
:101650006861A87A00280CD0297830688A00825AFC
:101660005306494A6B7839D5002B12D0012B2CD068
:1016700032E0A3B2AA882969306801F056FB3068CD
:101680005021095A09182878C200404810180C52F5
:1016900068E050231B5AC90018183C4B1B1DC91881
:1016A00041183E2C08D9E002000CE30601D1401E8F
:1016B00080B28002104306E0E003000CE20701D094
:1016C000401C80B28002088006E05022125A101896
:1016D000CA002E49511844522A8927E0002B02D013
:1016E000012B1BD021E050231B5A1818CB0027498F
:1016F000591841183E2C08D9E002000CE30601D12C
:10170000401E80B28002104306E0E003000CE207B6
:1017100001D0401C80B28002088006E05022125A9C
:101720001018CA00194951184452EA88A3B229690D
:10173000306801F0FAFA69781548002902D00129C9
:1017400008D00FE02A78316892008B5A03400E4887
:10175000C03005E02A78316892008B5A03400D486A
:1017600003438B52287831688200885A084B303303
:1017700018401023584020235840034B803318430F
:10178000885200203872F0BD008000000204000082
:101790008F8F000080C0000070B5044600684030A4
:1017A0008088C00B02D0204601F012F9206840303A
:1017B000818849050BD5818801229202914381805D
:1017C000204600F0CFF80021204600F0F5F8206810
:1017D00040308188490404D58188012292039143D5
:1017E0008180206840308188890404D58188012265
:1017F0005203914381802068403081880425C904C8
:10180000002910DA0188A9430180BD202168000267
:1018100040310880204600F0B1F8206840308188CF
:10182000AA0291438180206840308188090518D53B
:1018300081880122D2029143818020684030018852
:10184000082211430180206840300188294301802B
:10185000206840308088C043C00402D5204600F094
:10186000D5F8206840308188890507D58188012214
:10187000520291438180204600F096F82068403063
:101880008188C90504D58188FF2201329143818076
:1018900070BDF8B500270446002807D02646FF365D
:1018A000E136707A0025002802D005E00120F8BD5D
:1018B0003572204600F03AF80320707201210BE0E7
:1018C0001C20784302191046203041720772C572FD
:1018D000556395637F1CD5636068B842F0D80020DB
:1018E0000BE01C2242431219FF3201325572107272
:1018F000D57255619561401CD56162688242F0D80D
:1019000020684030018020684030058020684030E9
:101910008580206840300582BD2022680002403268
:1019200010802034257171720020F8BD08B5006860
:101930000A49884210D10A48C2690121C9050A43EF
:10194000C261C06900220840009011461F20FFF7C5
:10195000BDFA1F20FFF7B0FA08BD0000005C004090
:101960000010024010B5C41DFF34FA340121E069B3
:1019700002F035F8E06901F0FAFF10BD10B5044639
:101980008069002806D00748016906229143016159
:1019900001F0E4F9FF34FF340234E06902F00AF8A0
:1019A00010BD000000ED00E0FF3010B5FF30023048
:1019B000C06902F005F810BD0246FF32E132137A29
:1019C000012B08D001231372002906D020300171A9
:1019D000002010727047022070470068802140305C
:1019E0008181F5E710B5872189000A580146FF314A
:1019F000ED31104601F0FFFF10BD00684030018B53
:101A00000122D203114301830020704710B5044620
:101A1000FF30FF300230C06902F02EF8A0690028C4
:101A200004D00348016906221143016110BD000082
:101A300000ED00E0F8B504460068354DC00340D520
:101A4000E96928040143E961E969324E01400091E6
:101A50003068A91508433060FFF7E6F9074604E04F
:101A6000FFF7E2F9C01B642821D83068C005F7D51C
:101A7000286A03263602616830403140884220D00F
:101A8000286A2A6AB043012109040A432A622A6AA1
:101A90008A432A62286280070ED5FFF7C5F90746F8
:101AA00007E0FFF7C1F9C11B1B48814201D90320A0
:101AB000F8BD286A8007F4D5286A6168B0430843F6
:101AC00028622078C00705D0286BA16880088000B4
:101AD000084328632078800605D5286B10218843A9
:101AE000E168084328632068800305D5286B8021BE
:101AF00088436169084328632088400505D5286B21
:101B0000402188432169084328630020F8BD000074
:101B1000001002400070004088130000F8B5054630
:101B200049480E460068C007C00FB0420AD2464876
:101B3000016849084900314301600068C007C00FCF
:101B4000B04270D12878414C800705D56068F021FB
:101B50008843A968084360602878C00753D0686844
:101B6000012817D0022818D0032819D02168890726
:101B7000002958DA61688908890001436160FFF72C
:101B800053F969680746012913D002291DD003299A
:101B900027D034E021688903EAE721688901E7E773
:101BA000616BC903E4E7FFF73FF9C11B2848814295
:101BB00023D860680007800F0128F4D123E0FFF7E5
:101BC00033F9C11B2248814217D860680007800F93
:101BD0000228F4D117E0FFF727F9C11B1C48814206
:101BE0000BD860680007800F0328F4D10BE0FFF7E3
:101BF0001BF9C11B1648814201D90320F8BD60685A
:101C00000007800FF3D110480168C907C90FB1421E
:101C10000BD9016849084900314301600068C007D9
:101C2000C00FB04201D00120F8BD2878400706D58A
:101C30006068072109028843E96808436060002062
:101C4000FFF710F90020F8BD00200240001002400C
:101C50008813000010B500F021F805494968054ACD
:101C60000906090F515CC8400349086010BD000017
:101C7000001002405C4500080000002010B5FFF78E
:101C8000E9FF04494968044A4905490F515CC840C5
:101C900010BD0000001002405C45000830B516A3DE
:101CA0000FCB89B06C460FC417A30FCB0FC41A49D2
:101CB0004A680C20144604401848042C05D0184BE0
:101CC000082C04D00C2C00D1184609B030BD940269
:101CD000240F6D462C5DC96A04AD0907090FD203B4
:101CE000695C920F022A02D0032A00D11846FEF73F
:101CF0001DFA6043E9E7000002030405060708092E
:101D00000A0B0C0D0E0F1010010203040506070844
:101D1000090A0B0C0D0E0F100010024000127A0081
:101D2000006CDC02F8B504460078F84DC0075ED0C0
:101D300068680007800F012816D068680007800FC8
:101D4000022804D16868C003800F02280CD02868DC
:101D500001263604B04328602868B700B8432860DD
:101D6000FFF762F800900CE0286880033FD56068B8
:101D7000002870D03BE0FFF757F80099401A64281C
:101D80006AD828688003F6D4606801280AD0002841
:101D900001D0052808D029682846B1432960296860
:101DA000B94307E0284603E02968284639432960FB
:101DB000016831430160606800280CD0FFF734F8F7
:101DC000064604E0FFF730F8801B6428D8D828685E
:101DD0008003F7D50BE0FFF727F8064604E0FFF78E
:101DE00023F8801B6428CBD828688003F7D4207898
:101DF0000127800700283FDA68680007800F13D0AA
:101E000068680007800F022804D16868C003800F4B
:101E1000012809D0E068002828681ED038432860CF
:101E2000FFF702F806460BE0286880070BD5E0684C
:101E3000012810D107E0FEF7F7FF801B02289FD88A
:101E400028688007F7D52868F82188432169C900E8
:101E50000843286010E058E105E140084000286090
:101E6000FEF7E2FF064604E0FEF7DEFF801B0228D5
:101E700086D828688007F7D42078000721D5206A03
:101E80000028686A0ED038436862FEF7CDFF064628
:101E900004E0FEF7C9FF801B022897D8686A800714
:101EA000F7D50EE0400840006862FEF7BDFF064629
:101EB00004E0FEF7B9FF801B022887D8686A800714
:101EC000F7D4207804264007002866DAE969B006CE
:101ED0000143E961E96901408D480091016882157B
:101EE00011430160FEF7A0FF009005E0FEF79CFFA4
:101EF0000099401A6428A2D885480068C005F5D525
:101F0000286A400840002862286AB0432862FEF729
:101F10008BFF009006E0FEF787FF0099411A7D488D
:101F200081428CD8286A8007F5D4A06801280BD09C
:101F3000002801D0052809D0296A28464908490007
:101F40002962296AB14307E0284603E0296A284646
:101F500031432962016A39430162A06800280ED02A
:101F6000FEF762FF009006E0FEF75EFF0099411A5F
:101F70006848814277D8286A8007F5D50DE0FEF7DA
:101F800053FF009006E0FEF74FFF0099411A6148A9
:101F9000814268D8286A8007F5D42078C00634D5F5
:101FA000606901280CD0401D686B23D03043686302
:101FB000686B400840006863FEF736FF064621E084
:101FC000686B30436863686B38436863FEF72CFFC7
:101FD000064604E0FEF728FF801B022843D8686B02
:101FE0008007F7D5686BF8218843A169C9000843C9
:101FF00068630AE0B0436863F4E7FEF715FF801BEF
:10200000022830D8686B8007F7D4207880063CD54A
:1020100068680007800F032815D068680007800FE4
:10202000022804D16868C003800F03280BD0E06940
:10203000002819D0686B0121090408436863FEF782
:10204000F3FE06460BE0686BC0031ED5E06901286D
:102050006ED11AE0FEF7E8FE801B022861D8686B9B
:10206000C003F7D511E05CE0696B012000048143F7
:102070006963FEF7D9FE064604E0FEF7D5FE801B35
:1020800002284ED8686BC003F7D4606A00284DD090
:1020900069680907890F02294AD0012636060228F5
:1020A000286805D0B0432860FEF7BEFE04463AE03B
:1020B000B0432860FEF7B8FE074604E0FEF7B4FE22
:1020C000C01B02282DD828688001F7D4E86A216B4C
:1020D000000900010843E862A16AE06A08436968F0
:1020E0007B22D2039143084368602868304328600C
:1020F000FEF79AFE044604E0FEF796FE001B022857
:102100000FD828688001F7D510E011E000100240D8
:102110000070004088130000FEF786FE001B0228B6
:1021200001D90320F8BD28688001F5D40020F8BD4E
:102130000120F8BD042204490428086902D0904314
:10214000086170471043FBE700E000E070470000C3
:10215000094910B5401E884201D9012010BD074C25
:1021600060610321081F00F011FC0020A06107201E
:102170002061002010BD0000FFFFFF0000E000E034
:1021800010B5FFF7E3FF10BD70B502462032137E95
:10219000012B15D0012313760224547630C94E68E2
:1021A0002C430D68006835432C438D682C43CD6863
:1021B00009692C430C43446453760020107670BDAB
:1021C000022070BD70B502462032137E012B1BD059
:1021D0000123137602245476046865687026B5439B
:1021E0006560046865680E68354365600468A568C5
:1021F0008026B543A5600068846849680C43846004
:1022000053760020107670BD022070BD70B50400BA
:1022100005D025462035687E002802D006E0012042
:1022200070BD00202876204600F00AF8022068766B
:10223000211D206800F0F2FD01206876002070BDAD
:1022400000B5134A0168134887B0914208D18269EA
:10225000C1140A43826180690840059007B000BD3F
:10226000012292079142F9D1C26901210A43C26158
:10227000C06900910840059000200221029003905F
:102280000191049109206946C006FEF72FFDE5E79C
:10229000002C0140001002400222014620314A7603
:1022A00002681368012003431360487600207047DA
:1022B000F8B5054604462035287E012817D00127A9
:1022C0002F7602206876226890687726FF23B04335
:1022D0001B02984390600868502837D00EDC2028F5
:1022E00057D006DC00284ED0102840D14EE0022006
:1022F000F8BD302850D0402839D13CE060282DD09E
:10230000702817D001221203801A0ED090422ED1CD
:10231000CB684A688968206800F0C9FD2068816838
:10232000012292031143816021E020688168C9087D
:10233000C900F8E7CB684A688968206800F0B7FDF3
:1023400021688868B0433043886010E0CA684968F3
:10235000206800F0DEFE5021206806E0CA68496867
:10236000206800F00DFF6021206800F0ABFD6F7663
:1023700000202876F8BDCA684968206800F0C9FEC8
:1023800040212068F1E700212068EEE71021206855
:10239000EBE720212068E8E730212068E5E7F8B581
:1023A000064604462036307E0D4601283DD00120E9
:1023B000307602207076002A39D0042A46D0082AC6
:1023C00057D02B68297B20689E468C466B68016A33
:1023D0000122120391430162C169026A03273F028D
:1023E000B9431B020B430F2109038B4361460907C5
:1023F000090C194305235B039A4373460A273B40A4
:102400001B031343C16103622068C1690322920266
:102410009143C1612068C169AA6812021143C16178
:102420000120707600203076F8BD0220F8BDEB6800
:1024300006CD083D206800F07DFE206882690C21F1
:102440008A43826120688169AA680FE0EB6806CD43
:10245000083D206800F0A7FE2068826903218902F8
:102460008A43826120688169AA68120211438161EE
:10247000D6E788CD287921688446086AFF22013290
:1024800090430862C8690A6A800880003843F027D0
:10249000B84367463F073F0E07430520400282438B
:1024A0000A20034018021043CF6108622068C16906
:1024B0000C229143C1612068C1692A68AEE770B5FA
:1024C000040005D025462035687E002802D006E0AD
:1024D000012070BD00202876204600F00AF8022076
:1024E0006876211D206800F099FC012068760020A4
:1024F00070BD704710B504460068012200F0CCFCA6
:1025000020680168012211430160002010BD000015
:1025100000B50068094985B088420DD1402000907F
:1025200002200190002002900390012004900920D5
:102530006946C006FEF7DAFB05B000BD00040040A6
:1025400070B504462034237E012B0CD0012525765E
:1025500002236376002A08D0042A0AD0082A0CD065
:102560000C2A11D10DE0022070BD006800F0B2FC11
:102570000AE0006800F0EAFC06E0006800F020FDD8
:1025800002E0006800F058FD65760020207670BDFE
:1025900070B5040005D025462035687E002802D09D
:1025A00006E0012070BD00202876204600F00AF8E1
:1025B00002206876211D206800F030FC012068763A
:1025C000002070BD7047000010B50446006801226D
:1025D00000F062FC0A482168814205D00948814226
:1025E00002D00948814204D1486C0122D203104331
:1025F000486420680168012211430160002010BD79
:10260000002C01400044014000480140F8B5064656
:1026100004462036307E0D4601280DD0012030764C
:10262000022070760427002A08D0042A16D0082A2F
:102630002AD00C2A4DD137E00220F8BD206800F0E6
:1026400049FC206881690822114381612068816901
:10265000B9438161206881692A6912E0206800F02D
:1026600075FC206882690121C9020A4382612068E1
:1026700081690122920291438161206881692A69FE
:1026800012021143816124E0206800F099FC206867
:10269000C26908210A43C2612068C169B943C161A6
:1026A0002068C1692A6912E0206800F0C5FC206832
:1026B000C1690122D2021143C1612068C2690121AE
:1026C00089028A43C2612068C1692A6912021143E2
:1026D000C1610120707600203076F8BD70B504002D
:1026E00005D025462035687E002802D006E001206E
:1026F00070BD00202876204600F00AF80220687697
:10270000211D206800F08AFB01206876002070BD42
:1027100008B500680549884207D10548C269022109
:102720000A43C261C0690840009008BD000400402F
:102730000010024010B504460068012200F0ACFB16
:102740000A482168814205D00948814202D00948DF
:10275000814204D1486C0122D203104348642068AE
:102760000168012211430160002010BD002C0140CE
:10277000004401400048014070B50546044620353C
:10278000287E012814D001262E7602206876204665
:1027900000F082FC2068C16840229143C16020683B
:1027A000C16812029143C1606E760020287670BD28
:1027B000022070BDFEE700003EB5134811490160DC
:1027C000002141608160C160012481610461C161B7
:1027D000416204620463042244634261C162FDF702
:1027E000F9FF2003019007200290009469460648F3
:1027F000FDF756FF0220009069460348FDF750FFA1
:102800003EBD0000002401403C09002030B51D48B9
:1028100095B01B4901601C4900241C4D021D32C2A9
:1028200004614461FFF7F2FC012000030E900EA941
:102830001448FFF73DFD1348FFF7AAFE302012A908
:1028400011C110480839FFF7BDFC01200094400376
:1028500001940590029403940494694606940948EF
:10286000FFF792FC0794089509940A940B940C9432
:10287000002207A903480D94FFF762FE15B030BD92
:10288000002C014088090020BF1200000F27000023
:1028900010B50121184890B08907002412C00460C7
:1028A000611E846041600838FFF7B0FC01204003DE
:1028B000009001940294694603940F48FFF7F8FCD6
:1028C0000D48FFF7FCFD042008A911C10A4808398A
:1028D000FFF752FF0D940DA907480E94FFF772FC05
:1028E0000320059004940694002204A9079402484A
:1028F000FFF755FD10B010BDC409002010B51348F6
:102900008AB01149016000242F2184604160104980
:102910000461C160FFF7E2FE079407A90B48089421
:10292000FFF750FC60200090FF20F43001900294EB
:102930000022694604940548FFF768FE0348FFF744
:10294000E7FD0AB010BD000000040040000A0020AE
:10295000E703000010B500220749084800F0D8FE40
:102960000749064801F0ADF80649044800F009FDA2
:10297000024801F0F7F810BD24000020740A00207E
:102980003401002008000020704700008307FF2268
:10299000DB0E9A408907090E994000280BDA0007E0
:1029A000000F0838830808489B001818C369934330
:1029B0000B43C3617047830804489B001B181868C9
:1029C000904308431860704700ED00E000E400E029
:1029D000F0B585B004460020694688802046203046
:1029E000029079E199890F073F0F24D0BE00815BE7
:1029F0009980998809046FD5815BBF4A1140815342
:102A00001C2078430519FF350935A87A002820686D
:102A10007DD029788A00825A520479D55022125AE0
:102A2000CB00B64912185918515A8905890D0091E1
:102A30006FD0EA88C0E09989C9062AD40188B04AD3
:102A40001140018020685021095A2546283509186F
:102A50002878C200A9481018085A8005800D206403
:102A6000A16B0818A06300212046FEF750FA0298D7
:102A700000790028B5D068690028B2D102980079A1
:102A8000802108432168403188810298002101712A
:102A900022E12546FF350388093569468B80898800
:102AA00009051AD5118A09182878C2009348001D13
:102AB0001018085A294683059B0DAB61AA88E4319A
:102AC000206800F023F9206801888B4A11400180BA
:102AD0002046FEF787FFFFE095E0694689880904F4
:102AE000D6D50188844A1140018020685021095AB6
:102AF000824E08182978361DC9008919405A830565
:102B00009B0DAB610CD0AA882969206802E033E0F4
:102B100045E055E000F0FAF8A969286940182861F5
:102B200000212046FEF7FFF920685021095A0818B5
:102B30008119E8683E280AD9C202120CC00601D1E8
:102B4000521E92B290020122D203104306E0C20349
:102B5000120CC00701D0521C92B29002088021686A
:102B60000888684A10400122120350405200504029
:102B7000654A10430880AFE05021095A0A182978A5
:102B8000CB005E49091D5918515A8905890D0091DC
:102B900021D0AA882969009B00F0B8F81BE05022D8
:102BA000CB00125A55491218091D5918515A890556
:102BB000890D009104D02A892969009B00F0A6F8AC
:102BC000287821688200885A4D4B803318404E4B3C
:102BD000403318438852A96900980818A8612969E8
:102BE00000980A182A616B69002B03D0E9680098E5
:102BF000814204D929782046FEF795F903E0297827
:102C00002046FEF71FFC68468088000664D51C201D
:102C1000474320683D19825B39490A408253283571
:102C2000A87A002812D02878216882008A5A520691
:102C30001FD55022525A5118C20030481018085A55
:102C400083059B0DAB6125D0EA881FE020685021E9
:102C5000095A09182878C20028481018085A83050C
:102C60009B0DAB6121D0AA882969206800F05DF82E
:102C70001BE05022525A5218C1002048001D08186B
:102C8000105A83059B0DAB6104D02A8929692068FD
:102C900000F04BF8297820688900425A184B80339D
:102CA0001A40184BF1331A43425220680246403012
:102CB000018A88182978114AC9008918405A800564
:102CC000800DA86129690A182A616B692978002B8F
:102CD00020460DD0FEF79CFC2068024640329188C9
:102CE0006B469981090400D57CE6002005B0F0BD53
:102CF000FEF70DF9F0E700008F0F0000020400005E
:102D00000F8F00008FBF000080800000101801228C
:102D10005B1C92025B088018002B05D002880A8099
:102D2000801C891C5B1EF9D17047101801225B1CA6
:102D3000920210B55B088018002B08D04A780C78F6
:102D4000120222430280801C891C5B1EF6D110BD3A
:102D500010B5FEF76FF8FFF713FA10BD10B598B075
:102D6000302000900120079005901020002406904C
:102D700009946846FEF7D6FF07200D9003200E90B9
:102D80000F94012110940DA8FEF7C8FE0120400405
:102D90001694119011A8FEF74DFEFEF75BFF7D2102
:102DA000C900FDF7C3F9FFF7D3F90420FFF7C2F913
:102DB00000221146501EFEF789F818B010BD000021
:102DC000134801680122114301604168114A114012
:102DD00041600168104A11400160016801229204BB
:102DE0009143016041683F22120491434160C16AEE
:102DF00009090901C162016BFF22D43291430163C9
:102E0000416B49084900416300218160704700001F
:102E1000001002400CB8FF08FFFFF6FEF0B5026894
:102E2000184B0124A407184D984203D0A04201D0AA
:102E3000A84203D17026B2434E683243134E144F5A
:102E400098420AD0A04208D0A84206D0114CA04215
:102E500003D0B04201D0B84204D103242402A243DB
:102E6000CC68224302608A68C2620A688262984221
:102E700003D0B04201D0B84201D1096901630121F8
:102E80004161F0BD002C01400004004000440140BD
:102E9000004801400020004010B50123046A8B4027
:102EA0009C430462036A8A401343036210BD30B539
:102EB0008468FF252D021B021343AC430B432343BD
:102EC000836030BD826870239A430A4307210A4316
:102ED00082607047F0B5026A520852000262056AC9
:102EE000436882697024A24392080C6892001443DC
:102EF000022295438A68134E2A43114DA84204D0FA
:102F0000B04202D0104FB84206D10827BA43CF686A
:102F10001743042297433A46A84204D0B04202D055
:102F2000094DA84206D103252D02AB434D691D432F
:102F30008B692B4343608461496841630262F0BD41
:102F4000002C0140004401400048014070B5026A75
:102F500010239A430262046A4368826973252D0232
:102F6000AA430D682D021543202294438A6812015A
:102F70002243104CA04208D11446CA688026B443AC
:102F8000120122434024A24305E00B4CA04202D090
:102F90000A4CA04208D10324A402A3434C69A40014
:102FA0001C438B699B0023434360856149688163AF
:102FB000026270BD002C0140004401400048014005
:102FC00070B5026AFF2301339A430262046A4368C0
:102FD000C2697025AA4392080D6892001543012228
:102FE000520294438A6812022243104CA04207D135
:102FF000C414A243CC68240222430615B24305E060
:103000000B4CA04202D00B4CA04208D10324240355
:10301000A3434C6924011C438B691B012343436078
:10302000C5614968C163026270BD0000002C0140A7
:10303000004401400048014030B5026A01231B03EF
:103040009A430262056A4268C36973242402A34357
:103050000C6824021C4301235B039D438B681B0304
:103060002B430A4DA84205D0094DA84202D0094D74
:10307000A84205D10125AD03AA434D69AD012A43FC
:103080004260C46149680164036230BD002C0140A4
:10309000004401400048014070B50468A2687023F4
:1030A0009A434B681343DB080A68DB001A43A260AB
:1030B0004A6813071B0F0ED11211130000F082FE95
:1030C000080B0B0B0B0C1D23050B0B698A68C968D9
:1030D0000068FFF7ECFE70BD0268136A146A6408AA
:1030E000640014620468A2690969F025AA43090111
:1030F0001143A1610068036270BD0A6989680068B4
:1031000000F007F870BD0A698968006800F038F8B7
:1031100070BD30B5036A046A64086400046284699F
:10312000F025AC43120122430A24A3430B438261DE
:10313000036230BD70B5046A640864000462846987
:10314000056A0D4EB04206D00126B607B04202D045
:103150000A4EB04202D1A408A40000E001221443A8
:10316000F02294431A07120E0A2322439D4319406A
:1031700029438261016270BD002C014000040040BF
:1031800030B5036A1024A34303628469036A0F25E0
:103190002D031203AC432243A024A3430901194386
:1031A0008261016230BD70B5046A1025AC430462CF
:1031B0008569046A03263602B54312022A430F25A5
:1031C0002D031B071B0CAA431343A02209019443A0
:1031D000114021438361016270BDFF30FF30023036
:1031E0008069002806D0FF300021FF3002304161A5
:1031F000084670470220704770B5C21DFF32FA3290
:103200001546946900F044FBE11DFF31FA31C860B6
:10321000A869002808D04868E969CA68832189003C
:1032200061189047002070BD022070BD70B5044643
:103230000025812100F08EFA0121204600F08AFA53
:103240008221204600F086FAFF34FF340234A06960
:10325000002807D0E06940688047A06900F090FD31
:103260000020A061284670BDFF3010B5FF301A3035
:103270000AC8002B0AD0CC1DFF34FA342078FF286E
:1032800004D09B6862789847FF202070002010BD12
:103290000A210180004870475C0000204321018022
:1032A00000487047AC00002043210180004870476F
:1032B000680000204321018000487047F000002092
:1032C000F8B50446007C012600257602002830D09F
:1032D000402302228121204600F034FB40230222B9
:1032E0000121204600F02EFB0823032282212046E4
:1032F00000F028FB8720800000F044FDE11DFF3135
:10330000FA31886100281CD00746C86900688047E8
:10331000FF370020FF3702377861B861207C7A6878
:10332000002810D040230121204600F017FB28463A
:10333000F8BD334602228121204600F003FB3346CC
:10334000CDE70125F3E73346EDE710B54321C9008A
:103350000958002913D0027C002A09D0FF31FF311F
:1033600002314A684023012100F0F8FA002010BD24
:10337000FF31FF31023101235B024A68F3E702208B
:1033800010BD02460220002904D0FF32FF32023273
:103390000020D1617047FF30FF3002308069FF307C
:1033A000FF300230416000207047FF30FF300230B4
:1033B0008069FF30FF300230026181600020704779
:1033C00070B50C46C11D0546FF31FA3120786022E8
:1033D0008E69024022D0202A28D1E288002A16D005
:1033E000000607D5C96960788B6831469847E2883E
:1033F000314618E0F01DFF306178FA300170A17994
:103400004170E2883146284600F050F80EE0C96964
:1034100060788B6800222146984707E060780A2888
:1034200004D103490122284600F05CF8002070BD59
:103430005800002010B54321C9000958002911D0B7
:10344000FF31FF3102314A69002A01D0012010BD4D
:1034500001224A610A8A93B28A68812100F014FB32
:10346000002010BD022010BD10B585229200125818
:1034700052689047002010BD134610B50A4600213F
:1034800000F06CFA002010BD134610B50A4600216A
:1034900000F0FAFA002010BD10B50446802100F0BB
:1034A000D9FA0021204600F0D5FA10BD10B5FF234F
:1034B0000324F5331C50C31DF9339A60DA601346B8
:1034C0000A46002100F04AFA002010BD10B5FF2185
:1034D0000522F5310A5000231A46194600F03EFA3B
:1034E000002010BD10B5FF230224F5331C5082616B
:1034F0001346C2610A46002100F0C6FA002010BD42
:1035000010B5FF210422F5310A5000231A4619464E
:1035100000F0BAFA002010BD10B50A46024903A017
:1035200000F0D4F8004810BDD810002043444320D8
:10353000436F6E666967000012200880004870477C
:103540004400002010B50A46024903A000F0BEF86E
:10355000004810BDD810002043444320496E7465D4
:1035600072666163650000000420088000487047AF
:103570004000002010B50A46024903A000F0A6F85A
:10358000004810BDD810002053544D6963726F6518
:103590006C656374726F6E696373000010B50A46E0
:1035A000024903A000F092F8004810BDD810002096
:1035B00053544D3332205669727475616C20436FD9
:1035C0006D506F727400000010B50A46024903A0E6
:1035D00000F07CF8004810BDD810002030303030AA
:1035E000303030303030314100000000F8B50D4649
:1035F00004464988FF300A0AFF300230130000F009
:10360000E1FB084905091649493E46490069237C02
:1036100002682AE0217C02264069002905D0C16A9F
:10362000684688470146467040E0816AF8E7C9B2BB
:103630000B0000F0C7FB0604080F13171E2F0069CC
:10364000227C436802E00069227C83686946104658
:10365000984712E00069227CC368F7E70069227C82
:103660000369F3E70069237C42696946184690477D
:1036700003E00069227C8369E8E7014616E0217CCB
:10368000002907D14069416B68468847F5E7217CEE
:10369000002904D029462046FFF7FEFEF8BD406908
:1036A000016B6846884707220146427068460088D9
:1036B0000028F3D0EA88002AF0D0824200D90246DE
:1036C000684602802046FFF70DFFF8BD70B5002365
:1036D00000281CD00446002502E06D1CEDB2641CDD
:1036E0002678002EF9D16C00A41C1480CC5403223F
:1036F0005B1CCA5400245B1C06E0CA545B1CDAB293
:103700008C54521CD3B2401C0278002AF5D170BDF3
:1037100010B5002813D0C31DFF33FA335C69002CA9
:1037200001D000245C61002900D01961FF21012330
:10373000FD310B54027000F0B3F8002010BD0220E0
:1037400010BDFF3010B5FF300230006AFDF7B4FC49
:10375000002010BDFF3010B5FF300230006AFDF7C9
:10376000F1FB002010BDFEB50446FF30E51DE13041
:10377000FF35FA3513460190002908D0686942697F
:10378000002A49D00198007F032843D044E0264610
:10379000FF3681362046716F1430022934D1C26859
:1037A00081680092914207D9891A81608AB21946CC
:1037B0002046FFF769FE13E0406811460746FCF714
:1037C000B5FC002913D10098874210D3B06F87420F
:1037D0000DD2002211462046FFF756FE0020B067AA
:1037E00000231A461946204600F0B8F80CE0686934
:1037F000C168002905D00198007F032801D1204627
:1038000088472046FFF762FE2878012804D100206F
:10381000287001E0204690470020FEBD70B50546A7
:10382000FF35E1352B46203316460446002907D0E4
:1038300058698269002A29D0287F032824D025E0EE
:10384000FF21F531E01D0959FD3003291ED18268A1
:10385000C1688A420BD9511A8160C068814200D385
:1038600001468AB231462046FFF706FE0EE058694F
:103870000169002904D0287F032801D12046884708
:103880002046FFF73DFE01E020469047002070BD36
:10389000FF3010B5FF300230006AFDF769FC10BD43
:1038A00010B51C49C41DC861FF341B49FA341B48BC
:1038B00021620860022205208A60486003200A61B4
:1038C000C86000208861C8610846FDF7E2FF002259
:1038D00018231146206AFDF7FDFA582300228021A3
:1038E000206AFDF7F7FAC02300228121206AFDF744
:1038F000F1FAFF23113300220121206AFDF7EAFAD1
:10390000FF23013300228221206AFDF7E3FA002021
:1039100010BD0000B8100020B80E0020005C004070
:10392000FF30CA09FF3049060230490E1C23006AE5
:1039300059430818002A01D0203001E0FF3001303F
:10394000807A704710B5FF301C46FF3002301346B6
:10395000006A2246FDF716FC002010BDFF3010B5AE
:10396000FF300230006AFDF76DFD002010BD70B51C
:103970000022044640231146FFF7E4FF4025FF20C4
:10398000113005512B46002280212046FFF7DAFF37
:10399000FF200121FD3025620155E01DFF30FA3086
:1039A0008169002904D04069217942682046904706
:1039B000002070BDFF30E130417F0177002070476B
:1039C00010B5FF21FD31095C032906D1852189004D
:1039D0000958C969002900D08847002010BD01742A
:1039E00000207047FF3010B5FF300230006AFDF74D
:1039F000E3FF002010BD70B504464120C000201830
:103A0000054600F04AF82146FF318131012208467F
:103A100080304A67C2898A67007AC106C90E0AD017
:103A200001290DD0022910D0C109C901204600F09A
:103A300011F8002070BD2946204600F098F8F8E7FC
:103A40002946204600F07FF9F3E72946204600F09A
:103A500005F9EEE7FF3010B5FF300230006AFDF7E0
:103A60008DFD002010BDFF3010B5FF300230006A20
:103A7000FDF7C3FF002010BDFF30E130017F41772B
:103A80000421017700207047FF3010B5FF3002306D
:103A9000006AFDF7BDFD002010BD0A7802704A786B
:103AA0004270CB788A781B02D21842804B790A790F
:103AB0001B02D21882808A79C97909025118C18003
:103AC000704702460020002904D0FF32FF32023244
:103AD000516170470220704710B58522920012583C
:103AE0000224002A04D012689047002800D1002444
:103AF000204610BD70B50E468978194D04462970D0
:103B0000012904D931462046FFF7C6FC70BD204686
:103B1000FF30E130027F022A15D0032AF2D10029BA
:103B200017D0606888420AD0C1B22046FFF79CFCDB
:103B3000297861602046FFF7CFFF0228E2D02046B7
:103B4000FFF7DEFC70BD0029F9D003226160027727
:103B5000F0E70222027720466160FFF785FCEEE77E
:103B60005600002010B5FFF77EFF002010BDF8B50D
:103B700000220092C61DFF364C781746FA363246B0
:103B80000125203A230000F01DF90A3C564150411E
:103B90000906412B2841FFF729FD5DE0044688888E
:103BA000002818D1C888002815D1887817464606FD
:103BB000107F760E03280ED0BE7731462046FFF7E1
:103BC00011FF2046FFF79CFC002E02D00220387720
:103BD00042E03D7740E0204618E0FFF78BFF3BE0F6
:103BE000CB88012B12D1127F022A02D0032A0DD1D9
:103BF00004E0012201460831876013E00122011D23
:103C000010E0127F022A04D0032A02D0FFF744FCFE
:103C100022E0C5607168002901D00321C16001461E
:103C200002220C31FFF75EFC16E0044648880128AA
:103C300012D1756009E00446107F022801D00328E4
:103C4000C9D14888012807D1776070698268204609
:103C500090472046FFF754FC0098F8BDF8B504469D
:103C60000D462878E61D4006FF3600270979800FAB
:103C7000FA36012809D06A7830462038002A38D030
:103C8000012A1ED0032A3DD106E0706929468268C8
:103C9000204690470020F8BD007F022817D0032857
:103CA0002CD16888002806D1002904D0802902D0B0
:103CB0002046FFF7CFFE706929468268204690476C
:103CC00013E0007F022802D0032817D104E0002966
:103CD00018D080291AD115E06888002812D148062A
:103CE00003D02046FFF72DFDE5E72046FFF708FC4F
:103CF00008E0007F022807D003280BD02946204681
:103D0000FFF7CAFB3846F8BD4806FBD02046FFF750
:103D1000A1FEF7E7C80904D04806400D051914357F
:103D200004E04806400D0519FF3505352046FFF72C
:103D3000F7FD002800D001202860022229462046F5
:103D4000FFF7D0FBDEE770B50446FF30E130007FBF
:103D50000D4603280FD1287901280CD88520800032
:103D60000059826820469047E888002806D12046FE
:103D7000FFF7C6FB02E02046FFF78EFB002070BD78
:103D80007047000000487047980C002010B50248AA
:103D9000FDF702FD10BD0000B80E00200FB410B5F5
:103DA00004A9074B02AA039800F028F8044602A9C8
:103DB000002000F0CBF9204610BC08BC04B0184726
:103DC0004D41000830B47446641E2578641CAB4233
:103DD00000D21D46635D5B00E31830BC184702E06B
:103DE00008C8121F08C1002AFAD170477047002086
:103DF00001E001C1121F002AFBD17047FFB58FB04F
:103E00000546002606E025280AD0129A1199904707
:103E10006D1C761C28780028F5D1304613B0F0BD13
:103E2000002402940121B54A009400E004436D1C73
:103E30002B780846203B98401042F7D128782A2852
:103E40000ED00222287801463039092916D8029965
:103E50000A2359433039401814436D1C0290F1E78E
:103E6000109802C802911090002904DA0120400342
:103E7000044348420290022004436D1C28782E28F7
:103E800017D10420044368786D1C2A280CD110989F
:103E90006D1C02C8009110900BE000990A2251435A
:103EA000303940186D1C00902878014630390929B6
:103EB000F3D928786C2810D006DC4C281AD0682852
:103EC0000ED06A2817D104E0742813D07A2812D1B2
:103ED00010E00120400504430CE00121090501E048
:103EE000032109050C436978814203D101200005B3
:103EF00024186D1C6D1C2878692874D006DC0028F5
:103F00008BD0632827D0642806D16CE06E2808D0B7
:103F100073282CD0752878D0129A11999047761C66
:103F20005FE06002400F022809D003280DD004286A
:103F3000109801680DD00E60001D109051E010988F
:103F4000F21701680E604A60F6E7109801680E806B
:103F5000F2E70E70F0E710986A4601781173001DC1
:103F600010900020507303A80190012005E01098E4
:103F700002C8019110900020C04361070CD50027B2
:103F800000E07F1C00998F420FDA8742F9DB01992C
:103F9000C95D0029F5D108E0002700E07F1C8742B9
:103FA000FCDB0199C95D0029F8D102982146C01BAC
:103FB0000290129B119A00F0B3F88019C61907E01D
:103FC000019801990078491C0191129A1199904722
:103FD0007F1EF5D22146129B119A029800F090F8AC
:103FE00086196D1C16E70A200190109901C91091DD
:103FF0006102490F032900D100B2042900D140B267
:10400000002803DA40422D2103E00DE0210504D50C
:104010002B216A461173012103E0E10711D0202111
:10402000F7E70CAF0C9114E00A200190109901C938
:1040300010916102490F032900D180B2042900D1F7
:10404000C0B20021EDE70199FCF770F830317F1E16
:1040500039700028F7D104A8C01B203001906007F8
:1040600004D5012000048443009801E00120009061
:104070000199884201DD401A00E0002041180090BB
:104080000C9809180298401A0290E00306D42146C1
:10409000129B119A029800F043F8861900200D90A7
:1040A00008E003A9085C129A119990470D98401CEA
:1040B000761C0D900C998842F3DBE0030CD5214669
:1040C000129B119A029800F02BF8861904E0129ABC
:1040D000302011999047761C0099481E00900029C5
:1040E000F5DC05E03878129A7F1C11999047761C10
:1040F0000199481E01900029F4DC6BE709280100B2
:10410000F8B5044600251E461746880404D405E089
:1041100039462020B0476D1C641EF9D52846F8BDED
:10412000FFB50446002581B01E46C80301D53027DF
:1041300000E02027880404D505E038460399B047FD
:104140006D1C641EF9D5284605B0F0BD0A68531CE5
:104150000B6010707047000098B0FCF773FEFEF71C
:10416000FDFD55484269012189050A4342614269C2
:104170000A400092426949110A43426142690A4079
:1041800000924169012211434161406910400022BF
:10419000009011460920FCF799FE0920FCF78CFEDF
:1041A000FEF70AFBFEF732FBFEF772FBFEF7A6FBFB
:1041B000FEF7D0FBFF27F5373846FCF78CFD3F486C
:1041C000FCF723FA3D488830FEF766F83B480021AB
:1041D0008830FEF78FF939484C30FEF75DF83748E4
:1041E00000214C30FEF7F0F93448C430FEF754F8A3
:1041F00032480021C430FEF79DFA7A0030492F483A
:10420000FCF7DAFB00207D222D49D2004300CD5A75
:10421000039C5B18641903945B88049C801CE3185E
:1042200004939042F2DB002403ADA600A85939465E
:10423000FBF77CFF2349A8514843A8512249FBF7CB
:1042400075FF641CA851022CEFDB1C4DC4352E6891
:10425000F06AFCF75CF80446706BFCF758F82146EE
:10426000FCF717F81949FBF7D7FFFCF757F886B2A8
:1042700028463C380068446BFDF700FD2D68A96AAC
:10428000491CFBF753FFE96A491CFBF74FFF0190FC
:10429000029600940E4905A8049B039AFFF77EFD41
:1042A00005A8FBF759FF81B205A8FCF77DF964204A
:1042B000FCF711FDA6E70000001002403C090020B9
:1042C0006C010020E40C0000FF0F00000000C84259
:1042D000F4450008F0B59C4900787F25ED059B4E1C
:1042E0000C68A7B071281AD077283FD0652862D013
:1042F00072287DD064287CD066287BD03F2801D0EE
:1043000068280AD192496846FFF748FD6846FBF7DE
:1043100023FF81B26846FCF747F927B0F0BDE06A99
:10432000FBF7F5FF2F462946FBF71DFF0546606B9F
:10433000FBF7EDFF3946FBF716FF2946FBF7A9FF10
:104340003146FBF769FFFBF7E9FF85B2E06A6421BC
:10435000FBF7ECFE0004000C00D10120622D01D916
:10436000E06A01E0616B08186063D6E7E06AFBF77A
:10437000CEFF2946FBF7F7FE0746606BFBF7C7FF4A
:104380002946FBF7F0FE3946FBF783FF3146FBF782
:1043900043FFFBF7C3FF85B2E06A6421FBF7C6FE6B
:1043A0000004000C00D10120022D01D20020DBE727
:1043B000616B081AD8E7E06A87B23846FBF7A7FFB7
:1043C0007F21C905FBF7CFFE0546606BFBF79FFF1A
:1043D0007F21C905FBF7C7FE2946FBF75AFF314687
:1043E000FBF71AFFFBF79AFF80B2032F05D202E01A
:1043F0001BE051E072E0022500E07D08FBF787FF3B
:104400003146FBF746FF06462846FBF780FF31465C
:10441000FBF702FFFBF782FF4B4960630020401C63
:10442000C0B26428FBD3086856E0E06A87B2384619
:10443000FBF76DFF7F21C905FBF795FE0546606B15
:10444000FBF765FF7F21C905FBF78DFE2946FBF7CA
:1044500020FF3146FBF7E0FEFBF760FF3D4980B2ED
:104460008F4201D93C4D01E079040D0CFBF74FFF61
:104470003146FBF70EFF06462846FBF748FF31465C
:10448000FBF7CAFEFBF74AFF2F4960630020401C80
:10449000C0B26428FBD3C6E7E06A87B23846FBF7B0
:1044A00036FF7F21C905FBF75EFE0546606BFBF713
:1044B0002EFF7F21C905FBF756FE2946FBF7E9FED3
:1044C0003146FBF7A9FEFBF729FF80B2032F01D28B
:1044D000022525E07F1E22E0C5621EE7E06A87B262
:1044E0003846FBF714FF7F21C905FBF73CFE054664
:1044F000606BFBF70CFF7F21C905FBF734FE2946F3
:10450000FBF7C7FE3146FBF787FEFBF707FF1249B3
:1045100080B2491E8F4201D94D1C01E07F1CBDB203
:10452000FBF7F5FE3146FBF7B4FE06462846FBF7DF
:10453000EEFE3146FBF770FEFBF7F0FE0146024847
:1045400061630068C8E70000000A00200000C8425C
:104550006C450008A47F0000FFFF00000000000081
:104560000102030401020304060708090D0A0A0AEE
:1045700068206F72203F202D3E2073686F77207473
:104580006869732068656C700D0A712F77202D3E65
:1045900020696E632F6465632070776D2064757485
:1045A00079206379636C6520627920313025250D8F
:1045B0000A652F72202D3E20696E632F646563208B
:1045C00070776D206672657120726F7567680D0A6D
:1045D000642F66202D3E20696E632F646563207012
:1045E000776D206672657120736D6F6F74680D0A48
:1045F0000A0A0000414443205041313A20253464E6
:104600006D56205041323A202534646D562C2009D5
:1046100046726571205041303A202538642C205074
:10462000574D205041363A202534642C204475746F
:10463000793A2025336425250D0000005C460008EA
:10464000000000206C010000EC030008184700087F
:104650006C0100206C150000EE3D00081153127A29
:104660001361051B085D041A59041A8504C1133926
:10467000351B0869041A75041A9D041AC9041A190D
:10468000041A450417040309041201140202021655
:104690004083044057660201020301130A063202F6
:1046A0002A400F1C0902431B1125C03209041B01BB
:1046B000020B13052416100105240110090104241E
:1046C0000202052406170107058203081C100904CD
:1046D00051320A1D07050102432C070581070938DD
:1046E000442A40072A8107112B0907440A2204445F
:1046F0000A16FF4413C1321B082D0413C1334208AC
:104700001A690C13DB311B08F904C11AA9181A9D88
:08471000041AB5041A9104001B
:04000005080000C12E
:00000001FF
